{
  "contractName": "POC721",
  "abi": [
    {
      "inputs": [
        {
          "internalType": "uint256",
          "name": "tokenId",
          "type": "uint256"
        },
        {
          "internalType": "string",
          "name": "title",
          "type": "string"
        },
        {
          "internalType": "string",
          "name": "description",
          "type": "string"
        },
        {
          "internalType": "uint256",
          "name": "price",
          "type": "uint256"
        },
        {
          "internalType": "string",
          "name": "date",
          "type": "string"
        },
        {
          "internalType": "address",
          "name": "POC20Address",
          "type": "address"
        }
      ],
      "stateMutability": "nonpayable",
      "type": "constructor"
    },
    {
      "anonymous": false,
      "inputs": [
        {
          "indexed": true,
          "internalType": "address",
          "name": "owner",
          "type": "address"
        },
        {
          "indexed": true,
          "internalType": "address",
          "name": "approved",
          "type": "address"
        },
        {
          "indexed": true,
          "internalType": "uint256",
          "name": "tokenId",
          "type": "uint256"
        }
      ],
      "name": "Approval",
      "type": "event"
    },
    {
      "anonymous": false,
      "inputs": [
        {
          "indexed": true,
          "internalType": "address",
          "name": "owner",
          "type": "address"
        },
        {
          "indexed": true,
          "internalType": "address",
          "name": "operator",
          "type": "address"
        },
        {
          "indexed": false,
          "internalType": "bool",
          "name": "approved",
          "type": "bool"
        }
      ],
      "name": "ApprovalForAll",
      "type": "event"
    },
    {
      "anonymous": false,
      "inputs": [
        {
          "indexed": true,
          "internalType": "address",
          "name": "from",
          "type": "address"
        },
        {
          "indexed": true,
          "internalType": "address",
          "name": "to",
          "type": "address"
        },
        {
          "indexed": true,
          "internalType": "uint256",
          "name": "tokenId",
          "type": "uint256"
        }
      ],
      "name": "Transfer",
      "type": "event"
    },
    {
      "inputs": [
        {
          "internalType": "address",
          "name": "to",
          "type": "address"
        },
        {
          "internalType": "uint256",
          "name": "tokenId",
          "type": "uint256"
        }
      ],
      "name": "approve",
      "outputs": [],
      "stateMutability": "nonpayable",
      "type": "function"
    },
    {
      "inputs": [
        {
          "internalType": "address",
          "name": "owner",
          "type": "address"
        }
      ],
      "name": "balanceOf",
      "outputs": [
        {
          "internalType": "uint256",
          "name": "",
          "type": "uint256"
        }
      ],
      "stateMutability": "view",
      "type": "function"
    },
    {
      "inputs": [],
      "name": "currencyToken",
      "outputs": [
        {
          "internalType": "contract POC20",
          "name": "",
          "type": "address"
        }
      ],
      "stateMutability": "view",
      "type": "function"
    },
    {
      "inputs": [
        {
          "internalType": "uint256",
          "name": "tokenId",
          "type": "uint256"
        }
      ],
      "name": "getApproved",
      "outputs": [
        {
          "internalType": "address",
          "name": "",
          "type": "address"
        }
      ],
      "stateMutability": "view",
      "type": "function"
    },
    {
      "inputs": [
        {
          "internalType": "address",
          "name": "owner",
          "type": "address"
        },
        {
          "internalType": "address",
          "name": "operator",
          "type": "address"
        }
      ],
      "name": "isApprovedForAll",
      "outputs": [
        {
          "internalType": "bool",
          "name": "",
          "type": "bool"
        }
      ],
      "stateMutability": "view",
      "type": "function"
    },
    {
      "inputs": [
        {
          "internalType": "uint256",
          "name": "",
          "type": "uint256"
        }
      ],
      "name": "item",
      "outputs": [
        {
          "internalType": "uint256",
          "name": "tokenId",
          "type": "uint256"
        },
        {
          "internalType": "string",
          "name": "title",
          "type": "string"
        },
        {
          "internalType": "string",
          "name": "description",
          "type": "string"
        },
        {
          "internalType": "uint256",
          "name": "price",
          "type": "uint256"
        },
        {
          "internalType": "string",
          "name": "date",
          "type": "string"
        },
        {
          "internalType": "address payable",
          "name": "owner",
          "type": "address"
        },
        {
          "internalType": "enum POC721.ItemStatus",
          "name": "status",
          "type": "uint8"
        }
      ],
      "stateMutability": "view",
      "type": "function"
    },
    {
      "inputs": [],
      "name": "name",
      "outputs": [
        {
          "internalType": "string",
          "name": "",
          "type": "string"
        }
      ],
      "stateMutability": "view",
      "type": "function"
    },
    {
      "inputs": [],
      "name": "owner",
      "outputs": [
        {
          "internalType": "address payable",
          "name": "",
          "type": "address"
        }
      ],
      "stateMutability": "view",
      "type": "function"
    },
    {
      "inputs": [
        {
          "internalType": "uint256",
          "name": "tokenId",
          "type": "uint256"
        }
      ],
      "name": "ownerOf",
      "outputs": [
        {
          "internalType": "address",
          "name": "",
          "type": "address"
        }
      ],
      "stateMutability": "view",
      "type": "function"
    },
    {
      "inputs": [
        {
          "internalType": "address",
          "name": "from",
          "type": "address"
        },
        {
          "internalType": "address",
          "name": "to",
          "type": "address"
        },
        {
          "internalType": "uint256",
          "name": "tokenId",
          "type": "uint256"
        }
      ],
      "name": "safeTransferFrom",
      "outputs": [],
      "stateMutability": "nonpayable",
      "type": "function"
    },
    {
      "inputs": [
        {
          "internalType": "address",
          "name": "from",
          "type": "address"
        },
        {
          "internalType": "address",
          "name": "to",
          "type": "address"
        },
        {
          "internalType": "uint256",
          "name": "tokenId",
          "type": "uint256"
        },
        {
          "internalType": "bytes",
          "name": "data",
          "type": "bytes"
        }
      ],
      "name": "safeTransferFrom",
      "outputs": [],
      "stateMutability": "nonpayable",
      "type": "function"
    },
    {
      "inputs": [
        {
          "internalType": "address",
          "name": "operator",
          "type": "address"
        },
        {
          "internalType": "bool",
          "name": "approved",
          "type": "bool"
        }
      ],
      "name": "setApprovalForAll",
      "outputs": [],
      "stateMutability": "nonpayable",
      "type": "function"
    },
    {
      "inputs": [
        {
          "internalType": "bytes4",
          "name": "interfaceId",
          "type": "bytes4"
        }
      ],
      "name": "supportsInterface",
      "outputs": [
        {
          "internalType": "bool",
          "name": "",
          "type": "bool"
        }
      ],
      "stateMutability": "view",
      "type": "function"
    },
    {
      "inputs": [],
      "name": "symbol",
      "outputs": [
        {
          "internalType": "string",
          "name": "",
          "type": "string"
        }
      ],
      "stateMutability": "view",
      "type": "function"
    },
    {
      "inputs": [
        {
          "internalType": "uint256",
          "name": "",
          "type": "uint256"
        },
        {
          "internalType": "uint256",
          "name": "",
          "type": "uint256"
        }
      ],
      "name": "tokenOwnerHistory",
      "outputs": [
        {
          "internalType": "address",
          "name": "",
          "type": "address"
        }
      ],
      "stateMutability": "view",
      "type": "function"
    },
    {
      "inputs": [
        {
          "internalType": "uint256",
          "name": "",
          "type": "uint256"
        },
        {
          "internalType": "uint256",
          "name": "",
          "type": "uint256"
        }
      ],
      "name": "tokenPriceHistory",
      "outputs": [
        {
          "internalType": "uint256",
          "name": "",
          "type": "uint256"
        }
      ],
      "stateMutability": "view",
      "type": "function"
    },
    {
      "inputs": [
        {
          "internalType": "uint256",
          "name": "tokenId",
          "type": "uint256"
        }
      ],
      "name": "tokenURI",
      "outputs": [
        {
          "internalType": "string",
          "name": "",
          "type": "string"
        }
      ],
      "stateMutability": "view",
      "type": "function"
    },
    {
      "inputs": [
        {
          "internalType": "address",
          "name": "from",
          "type": "address"
        },
        {
          "internalType": "address",
          "name": "to",
          "type": "address"
        },
        {
          "internalType": "uint256",
          "name": "tokenId",
          "type": "uint256"
        }
      ],
      "name": "transferFrom",
      "outputs": [],
      "stateMutability": "nonpayable",
      "type": "function"
    },
    {
      "inputs": [
        {
          "internalType": "uint256",
          "name": "tokenId",
          "type": "uint256"
        }
      ],
      "name": "buyItem",
      "outputs": [],
      "stateMutability": "payable",
      "type": "function"
    },
    {
      "inputs": [
        {
          "internalType": "uint256",
          "name": "tokenId",
          "type": "uint256"
        },
        {
          "internalType": "uint256",
          "name": "price",
          "type": "uint256"
        }
      ],
      "name": "resellItem",
      "outputs": [],
      "stateMutability": "nonpayable",
      "type": "function"
    },
    {
      "inputs": [
        {
          "internalType": "uint256",
          "name": "tokenId",
          "type": "uint256"
        }
      ],
      "name": "getTokenOwnerHistory",
      "outputs": [
        {
          "internalType": "address[]",
          "name": "",
          "type": "address[]"
        }
      ],
      "stateMutability": "view",
      "type": "function"
    },
    {
      "inputs": [
        {
          "internalType": "uint256",
          "name": "tokenId",
          "type": "uint256"
        }
      ],
      "name": "getPriceHistory",
      "outputs": [
        {
          "internalType": "uint256[]",
          "name": "",
          "type": "uint256[]"
        }
      ],
      "stateMutability": "view",
      "type": "function"
    }
  ],
  "bytecode": "0x60806040523480156200001157600080fd5b506040516200466238038062004662833981810160405281019062000037919062000ad2565b6040518060400160405280600d81526020017f504f435f4e46545f544f4b454e000000000000000000000000000000000000008152506040518060400160405280600681526020017f504f4337323100000000000000000000000000000000000000000000000000008152508160009081620000b4919062000e0c565b508060019081620000c6919062000e0c565b50505033600660006101000a81548173ffffffffffffffffffffffffffffffffffffffff021916908373ffffffffffffffffffffffffffffffffffffffff1602179055506200013e600660009054906101000a900473ffffffffffffffffffffffffffffffffffffffff1687620003c860201b60201c565b6040518060e00160405280878152602001868152602001858152602001848152602001838152602001600660009054906101000a900473ffffffffffffffffffffffffffffffffffffffff1673ffffffffffffffffffffffffffffffffffffffff16815260200160006001811115620001bc57620001bb62000ef3565b5b815250600a6000888152602001908152602001600020600082015181600001556020820151816001019081620001f3919062000e0c565b5060408201518160020190816200020b919062000e0c565b506060820151816003015560808201518160040190816200022d919062000e0c565b5060a08201518160050160006101000a81548173ffffffffffffffffffffffffffffffffffffffff021916908373ffffffffffffffffffffffffffffffffffffffff16021790555060c08201518160050160146101000a81548160ff02191690836001811115620002a357620002a262000ef3565b5b021790555090505060086000878152602001908152602001600020600660009054906101000a900473ffffffffffffffffffffffffffffffffffffffff169080600181540180825580915050600190039060005260206000200160009091909190916101000a81548173ffffffffffffffffffffffffffffffffffffffff021916908373ffffffffffffffffffffffffffffffffffffffff1602179055506009600087815260200190815260200160002083908060018154018082558091505060019003906000526020600020016000909190919091505580600760006101000a81548173ffffffffffffffffffffffffffffffffffffffff021916908373ffffffffffffffffffffffffffffffffffffffff1602179055505050505050506200127b565b620003ea828260405180602001604052806000815250620003ee60201b60201c565b5050565b6200040083836200045c60201b60201c565b6200041560008484846200065560201b60201c565b62000457576040517f08c379a00000000000000000000000000000000000000000000000000000000081526004016200044e9062000fa9565b60405180910390fd5b505050565b600073ffffffffffffffffffffffffffffffffffffffff168273ffffffffffffffffffffffffffffffffffffffff1603620004ce576040517f08c379a0000000000000000000000000000000000000000000000000000000008152600401620004c5906200101b565b60405180910390fd5b620004df81620007fe60201b60201c565b1562000522576040517f08c379a000000000000000000000000000000000000000000000000000000000815260040162000519906200108d565b60405180910390fd5b62000536600083836200086a60201b60201c565b6001600360008473ffffffffffffffffffffffffffffffffffffffff1673ffffffffffffffffffffffffffffffffffffffff1681526020019081526020016000206000828254620005889190620010de565b92505081905550816002600083815260200190815260200160002060006101000a81548173ffffffffffffffffffffffffffffffffffffffff021916908373ffffffffffffffffffffffffffffffffffffffff160217905550808273ffffffffffffffffffffffffffffffffffffffff16600073ffffffffffffffffffffffffffffffffffffffff167fddf252ad1be2c89b69c2b068fc378daa952ba7f163c4a11628f55a4df523b3ef60405160405180910390a462000651600083836200086f60201b60201c565b5050565b6000620006838473ffffffffffffffffffffffffffffffffffffffff166200087460201b620015891760201c565b15620007f1578373ffffffffffffffffffffffffffffffffffffffff1663150b7a02620006b56200089760201b60201c565b8786866040518563ffffffff1660e01b8152600401620006d9949392919062001198565b6020604051808303816000875af19250505080156200071857506040513d601f19601f8201168201806040525081019062000715919062001249565b60015b620007a0573d80600081146200074b576040519150601f19603f3d011682016040523d82523d6000602084013e62000750565b606091505b50600081510362000798576040517f08c379a00000000000000000000000000000000000000000000000000000000081526004016200078f9062000fa9565b60405180910390fd5b805181602001fd5b63150b7a0260e01b7bffffffffffffffffffffffffffffffffffffffffffffffffffffffff1916817bffffffffffffffffffffffffffffffffffffffffffffffffffffffff191614915050620007f6565b600190505b949350505050565b60008073ffffffffffffffffffffffffffffffffffffffff166002600084815260200190815260200160002060009054906101000a900473ffffffffffffffffffffffffffffffffffffffff1673ffffffffffffffffffffffffffffffffffffffff1614159050919050565b505050565b505050565b6000808273ffffffffffffffffffffffffffffffffffffffff163b119050919050565b600033905090565b6000604051905090565b600080fd5b600080fd5b6000819050919050565b620008c881620008b3565b8114620008d457600080fd5b50565b600081519050620008e881620008bd565b92915050565b600080fd5b600080fd5b6000601f19601f8301169050919050565b7f4e487b7100000000000000000000000000000000000000000000000000000000600052604160045260246000fd5b6200094382620008f8565b810181811067ffffffffffffffff8211171562000965576200096462000909565b5b80604052505050565b60006200097a6200089f565b905062000988828262000938565b919050565b600067ffffffffffffffff821115620009ab57620009aa62000909565b5b620009b682620008f8565b9050602081019050919050565b60005b83811015620009e3578082015181840152602081019050620009c6565b60008484015250505050565b600062000a0662000a00846200098d565b6200096e565b90508281526020810184848401111562000a255762000a24620008f3565b5b62000a32848285620009c3565b509392505050565b600082601f83011262000a525762000a51620008ee565b5b815162000a64848260208601620009ef565b91505092915050565b600073ffffffffffffffffffffffffffffffffffffffff82169050919050565b600062000a9a8262000a6d565b9050919050565b62000aac8162000a8d565b811462000ab857600080fd5b50565b60008151905062000acc8162000aa1565b92915050565b60008060008060008060c0878903121562000af25762000af1620008a9565b5b600062000b0289828a01620008d7565b965050602087015167ffffffffffffffff81111562000b265762000b25620008ae565b5b62000b3489828a0162000a3a565b955050604087015167ffffffffffffffff81111562000b585762000b57620008ae565b5b62000b6689828a0162000a3a565b945050606062000b7989828a01620008d7565b935050608087015167ffffffffffffffff81111562000b9d5762000b9c620008ae565b5b62000bab89828a0162000a3a565b92505060a062000bbe89828a0162000abb565b9150509295509295509295565b600081519050919050565b7f4e487b7100000000000000000000000000000000000000000000000000000000600052602260045260246000fd5b6000600282049050600182168062000c1e57607f821691505b60208210810362000c345762000c3362000bd6565b5b50919050565b60008190508160005260206000209050919050565b60006020601f8301049050919050565b600082821b905092915050565b60006008830262000c9e7fffffffffffffffffffffffffffffffffffffffffffffffffffffffffffffffff8262000c5f565b62000caa868362000c5f565b95508019841693508086168417925050509392505050565b6000819050919050565b600062000ced62000ce762000ce184620008b3565b62000cc2565b620008b3565b9050919050565b6000819050919050565b62000d098362000ccc565b62000d2162000d188262000cf4565b84845462000c6c565b825550505050565b600090565b62000d3862000d29565b62000d4581848462000cfe565b505050565b5b8181101562000d6d5762000d6160008262000d2e565b60018101905062000d4b565b5050565b601f82111562000dbc5762000d868162000c3a565b62000d918462000c4f565b8101602085101562000da1578190505b62000db962000db08562000c4f565b83018262000d4a565b50505b505050565b600082821c905092915050565b600062000de16000198460080262000dc1565b1980831691505092915050565b600062000dfc838362000dce565b9150826002028217905092915050565b62000e178262000bcb565b67ffffffffffffffff81111562000e335762000e3262000909565b5b62000e3f825462000c05565b62000e4c82828562000d71565b600060209050601f83116001811462000e84576000841562000e6f578287015190505b62000e7b858262000dee565b86555062000eeb565b601f19841662000e948662000c3a565b60005b8281101562000ebe5784890151825560018201915060208501945060208101905062000e97565b8683101562000ede578489015162000eda601f89168262000dce565b8355505b6001600288020188555050505b505050505050565b7f4e487b7100000000000000000000000000000000000000000000000000000000600052602160045260246000fd5b600082825260208201905092915050565b7f4552433732313a207472616e7366657220746f206e6f6e20455243373231526560008201527f63656976657220696d706c656d656e7465720000000000000000000000000000602082015250565b600062000f9160328362000f22565b915062000f9e8262000f33565b604082019050919050565b6000602082019050818103600083015262000fc48162000f82565b9050919050565b7f4552433732313a206d696e7420746f20746865207a65726f2061646472657373600082015250565b60006200100360208362000f22565b9150620010108262000fcb565b602082019050919050565b60006020820190508181036000830152620010368162000ff4565b9050919050565b7f4552433732313a20746f6b656e20616c7265616479206d696e74656400000000600082015250565b600062001075601c8362000f22565b915062001082826200103d565b602082019050919050565b60006020820190508181036000830152620010a88162001066565b9050919050565b7f4e487b7100000000000000000000000000000000000000000000000000000000600052601160045260246000fd5b6000620010eb82620008b3565b9150620010f883620008b3565b9250828201905080821115620011135762001112620010af565b5b92915050565b620011248162000a8d565b82525050565b6200113581620008b3565b82525050565b600081519050919050565b600082825260208201905092915050565b600062001164826200113b565b62001170818562001146565b935062001182818560208601620009c3565b6200118d81620008f8565b840191505092915050565b6000608082019050620011af600083018762001119565b620011be602083018662001119565b620011cd60408301856200112a565b8181036060830152620011e1818462001157565b905095945050505050565b60007fffffffff0000000000000000000000000000000000000000000000000000000082169050919050565b6200122381620011ec565b81146200122f57600080fd5b50565b600081519050620012438162001218565b92915050565b600060208284031215620012625762001261620008a9565b5b6000620012728482850162001232565b91505092915050565b6133d7806200128b6000396000f3fe6080604052600436106101355760003560e01c8063898e6219116100ab578063c87b56dd1161006f578063c87b56dd14610464578063cbd894c7146104a1578063e7fb74c7146104de578063e985e9c5146104fa578063f9eccb3b14610537578063fd1a98a51461056057610135565b8063898e6219146103795780638da5cb5b146103bc57806395d89b41146103e7578063a22cb46514610412578063b88d4fde1461043b57610135565b80631626a418116100fd5780631626a4181461024557806323b872dd1461028257806342842e0e146102ab5780636352211e146102d45780636b2fa3741461031157806370a082311461033c57610135565b8063013dd3411461013a57806301ffc9a71461017757806306fdde03146101b4578063081812fc146101df578063095ea7b31461021c575b600080fd5b34801561014657600080fd5b50610161600480360381019061015c9190611fc9565b61059d565b60405161016e91906120e6565b60405180910390f35b34801561018357600080fd5b5061019e60048036038101906101999190612160565b61063e565b6040516101ab91906121a8565b60405180910390f35b3480156101c057600080fd5b506101c9610720565b6040516101d69190612253565b60405180910390f35b3480156101eb57600080fd5b5061020660048036038101906102019190611fc9565b6107b2565b6040516102139190612284565b60405180910390f35b34801561022857600080fd5b50610243600480360381019061023e91906122cb565b6107f8565b005b34801561025157600080fd5b5061026c6004803603810190610267919061230b565b61090f565b604051610279919061235a565b60405180910390f35b34801561028e57600080fd5b506102a960048036038101906102a49190612375565b610940565b005b3480156102b757600080fd5b506102d260048036038101906102cd9190612375565b6109a0565b005b3480156102e057600080fd5b506102fb60048036038101906102f69190611fc9565b6109c0565b6040516103089190612284565b60405180910390f35b34801561031d57600080fd5b50610326610a71565b6040516103339190612427565b60405180910390f35b34801561034857600080fd5b50610363600480360381019061035e9190612442565b610a97565b604051610370919061235a565b60405180910390f35b34801561038557600080fd5b506103a0600480360381019061039b9190611fc9565b610b4e565b6040516103b39796959493929190612507565b60405180910390f35b3480156103c857600080fd5b506103d1610d55565b6040516103de919061258b565b60405180910390f35b3480156103f357600080fd5b506103fc610d7b565b6040516104099190612253565b60405180910390f35b34801561041e57600080fd5b50610439600480360381019061043491906125d2565b610e0d565b005b34801561044757600080fd5b50610462600480360381019061045d9190612747565b610e23565b005b34801561047057600080fd5b5061048b60048036038101906104869190611fc9565b610e85565b6040516104989190612253565b60405180910390f35b3480156104ad57600080fd5b506104c860048036038101906104c3919061230b565b610eed565b6040516104d59190612284565b60405180910390f35b6104f860048036038101906104f39190611fc9565b610f3b565b005b34801561050657600080fd5b50610521600480360381019061051c91906127ca565b611313565b60405161052e91906121a8565b60405180910390f35b34801561054357600080fd5b5061055e6004803603810190610559919061230b565b6113a7565b005b34801561056c57600080fd5b5061058760048036038101906105829190611fc9565b61151e565b60405161059491906128c8565b60405180910390f35b60606008600083815260200190815260200160002080548060200260200160405190810160405280929190818152602001828054801561063257602002820191906000526020600020905b8160009054906101000a900473ffffffffffffffffffffffffffffffffffffffff1673ffffffffffffffffffffffffffffffffffffffff16815260200190600101908083116105e8575b50505050509050919050565b60007f80ac58cd000000000000000000000000000000000000000000000000000000007bffffffffffffffffffffffffffffffffffffffffffffffffffffffff1916827bffffffffffffffffffffffffffffffffffffffffffffffffffffffff1916148061070957507f5b5e139f000000000000000000000000000000000000000000000000000000007bffffffffffffffffffffffffffffffffffffffffffffffffffffffff1916827bffffffffffffffffffffffffffffffffffffffffffffffffffffffff1916145b806107195750610718826115ac565b5b9050919050565b60606000805461072f90612919565b80601f016020809104026020016040519081016040528092919081815260200182805461075b90612919565b80156107a85780601f1061077d576101008083540402835291602001916107a8565b820191906000526020600020905b81548152906001019060200180831161078b57829003601f168201915b5050505050905090565b60006107bd82611616565b6004600083815260200190815260200160002060009054906101000a900473ffffffffffffffffffffffffffffffffffffffff169050919050565b6000610803826109c0565b90508073ffffffffffffffffffffffffffffffffffffffff168373ffffffffffffffffffffffffffffffffffffffff1603610873576040517f08c379a000000000000000000000000000000000000000000000000000000000815260040161086a906129bc565b60405180910390fd5b8073ffffffffffffffffffffffffffffffffffffffff16610892611661565b73ffffffffffffffffffffffffffffffffffffffff1614806108c157506108c0816108bb611661565b611313565b5b610900576040517f08c379a00000000000000000000000000000000000000000000000000000000081526004016108f790612a4e565b60405180910390fd5b61090a8383611669565b505050565b6009602052816000526040600020818154811061092b57600080fd5b90600052602060002001600091509150505481565b61095161094b611661565b82611722565b610990576040517f08c379a000000000000000000000000000000000000000000000000000000000815260040161098790612ae0565b60405180910390fd5b61099b8383836117b7565b505050565b6109bb83838360405180602001604052806000815250610e23565b505050565b6000806002600084815260200190815260200160002060009054906101000a900473ffffffffffffffffffffffffffffffffffffffff169050600073ffffffffffffffffffffffffffffffffffffffff168173ffffffffffffffffffffffffffffffffffffffff1603610a68576040517f08c379a0000000000000000000000000000000000000000000000000000000008152600401610a5f90612b4c565b60405180910390fd5b80915050919050565b600760009054906101000a900473ffffffffffffffffffffffffffffffffffffffff1681565b60008073ffffffffffffffffffffffffffffffffffffffff168273ffffffffffffffffffffffffffffffffffffffff1603610b07576040517f08c379a0000000000000000000000000000000000000000000000000000000008152600401610afe90612bde565b60405180910390fd5b600360008373ffffffffffffffffffffffffffffffffffffffff1673ffffffffffffffffffffffffffffffffffffffff168152602001908152602001600020549050919050565b600a602052806000526040600020600091509050806000015490806001018054610b7790612919565b80601f0160208091040260200160405190810160405280929190818152602001828054610ba390612919565b8015610bf05780601f10610bc557610100808354040283529160200191610bf0565b820191906000526020600020905b815481529060010190602001808311610bd357829003601f168201915b505050505090806002018054610c0590612919565b80601f0160208091040260200160405190810160405280929190818152602001828054610c3190612919565b8015610c7e5780601f10610c5357610100808354040283529160200191610c7e565b820191906000526020600020905b815481529060010190602001808311610c6157829003601f168201915b505050505090806003015490806004018054610c9990612919565b80601f0160208091040260200160405190810160405280929190818152602001828054610cc590612919565b8015610d125780601f10610ce757610100808354040283529160200191610d12565b820191906000526020600020905b815481529060010190602001808311610cf557829003601f168201915b5050505050908060050160009054906101000a900473ffffffffffffffffffffffffffffffffffffffff16908060050160149054906101000a900460ff16905087565b600660009054906101000a900473ffffffffffffffffffffffffffffffffffffffff1681565b606060018054610d8a90612919565b80601f0160208091040260200160405190810160405280929190818152602001828054610db690612919565b8015610e035780601f10610dd857610100808354040283529160200191610e03565b820191906000526020600020905b815481529060010190602001808311610de657829003601f168201915b5050505050905090565b610e1f610e18611661565b8383611a1d565b5050565b610e34610e2e611661565b83611722565b610e73576040517f08c379a0000000000000000000000000000000000000000000000000000000008152600401610e6a90612ae0565b60405180910390fd5b610e7f84848484611b89565b50505050565b6060610e9082611616565b6000610e9a611be5565b90506000815111610eba5760405180602001604052806000815250610ee5565b80610ec484611c22565b604051602001610ed5929190612c3a565b6040516020818303038152906040525b915050919050565b60086020528160005260406000208181548110610f0957600080fd5b906000526020600020016000915091509054906101000a900473ffffffffffffffffffffffffffffffffffffffff1681565b600660009054906101000a900473ffffffffffffffffffffffffffffffffffffffff1673ffffffffffffffffffffffffffffffffffffffff163373ffffffffffffffffffffffffffffffffffffffff1603610fcb576040517f08c379a0000000000000000000000000000000000000000000000000000000008152600401610fc290612caa565b60405180910390fd5b600a6000828152602001908152602001600020600301543414611023576040517f08c379a000000000000000000000000000000000000000000000000000000000815260040161101a90612d16565b60405180910390fd5b6000600181111561103757611036612490565b5b600a600083815260200190815260200160002060050160149054906101000a900460ff16600181111561106d5761106c612490565b5b146110ad576040517f08c379a00000000000000000000000000000000000000000000000000000000081526004016110a490612da8565b60405180910390fd5b600760009054906101000a900473ffffffffffffffffffffffffffffffffffffffff1673ffffffffffffffffffffffffffffffffffffffff1663a64b6e5f33600660009054906101000a900473ffffffffffffffffffffffffffffffffffffffff16346040518463ffffffff1660e01b815260040161112e93929190612dc8565b600060405180830381600087803b15801561114857600080fd5b505af115801561115c573d6000803e3d6000fd5b5050505061118d600660009054906101000a900473ffffffffffffffffffffffffffffffffffffffff1633836117b7565b33600a600083815260200190815260200160002060050160006101000a81548173ffffffffffffffffffffffffffffffffffffffff021916908373ffffffffffffffffffffffffffffffffffffffff1602179055506001600a600083815260200190815260200160002060050160146101000a81548160ff0219169083600181111561121c5761121b612490565b5b021790555060086000828152602001908152602001600020339080600181540180825580915050600190039060005260206000200160009091909190916101000a81548173ffffffffffffffffffffffffffffffffffffffff021916908373ffffffffffffffffffffffffffffffffffffffff1602179055506009600082815260200190815260200160002034908060018154018082558091505060019003906000526020600020016000909190919091505533600660006101000a81548173ffffffffffffffffffffffffffffffffffffffff021916908373ffffffffffffffffffffffffffffffffffffffff16021790555050565b6000600560008473ffffffffffffffffffffffffffffffffffffffff1673ffffffffffffffffffffffffffffffffffffffff16815260200190815260200160002060008373ffffffffffffffffffffffffffffffffffffffff1673ffffffffffffffffffffffffffffffffffffffff16815260200190815260200160002060009054906101000a900460ff16905092915050565b600660009054906101000a900473ffffffffffffffffffffffffffffffffffffffff1673ffffffffffffffffffffffffffffffffffffffff163373ffffffffffffffffffffffffffffffffffffffff1614611437576040517f08c379a000000000000000000000000000000000000000000000000000000000815260040161142e90612e4b565b60405180910390fd5b60018081111561144a57611449612490565b5b600a600084815260200190815260200160002060050160149054906101000a900460ff1660018111156114805761147f612490565b5b146114c0576040517f08c379a00000000000000000000000000000000000000000000000000000000081526004016114b790612edd565b60405180910390fd5b6000600a600084815260200190815260200160002060050160146101000a81548160ff021916908360018111156114fa576114f9612490565b5b021790555080600a6000848152602001908152602001600020600301819055505050565b60606009600083815260200190815260200160002080548060200260200160405190810160405280929190818152602001828054801561157d57602002820191906000526020600020905b815481526020019060010190808311611569575b50505050509050919050565b6000808273ffffffffffffffffffffffffffffffffffffffff163b119050919050565b60007f01ffc9a7000000000000000000000000000000000000000000000000000000007bffffffffffffffffffffffffffffffffffffffffffffffffffffffff1916827bffffffffffffffffffffffffffffffffffffffffffffffffffffffff1916149050919050565b61161f81611d82565b61165e576040517f08c379a000000000000000000000000000000000000000000000000000000000815260040161165590612b4c565b60405180910390fd5b50565b600033905090565b816004600083815260200190815260200160002060006101000a81548173ffffffffffffffffffffffffffffffffffffffff021916908373ffffffffffffffffffffffffffffffffffffffff160217905550808273ffffffffffffffffffffffffffffffffffffffff166116dc836109c0565b73ffffffffffffffffffffffffffffffffffffffff167f8c5be1e5ebec7d5bd14f71427d1e84f3dd0314c0f7b2291e5b200ac8c7c3b92560405160405180910390a45050565b60008061172e836109c0565b90508073ffffffffffffffffffffffffffffffffffffffff168473ffffffffffffffffffffffffffffffffffffffff161480611770575061176f8185611313565b5b806117ae57508373ffffffffffffffffffffffffffffffffffffffff16611796846107b2565b73ffffffffffffffffffffffffffffffffffffffff16145b91505092915050565b8273ffffffffffffffffffffffffffffffffffffffff166117d7826109c0565b73ffffffffffffffffffffffffffffffffffffffff161461182d576040517f08c379a000000000000000000000000000000000000000000000000000000000815260040161182490612f6f565b60405180910390fd5b600073ffffffffffffffffffffffffffffffffffffffff168273ffffffffffffffffffffffffffffffffffffffff160361189c576040517f08c379a000000000000000000000000000000000000000000000000000000000815260040161189390613001565b60405180910390fd5b6118a7838383611dee565b6118b2600082611669565b6001600360008573ffffffffffffffffffffffffffffffffffffffff1673ffffffffffffffffffffffffffffffffffffffff16815260200190815260200160002060008282546119029190613050565b925050819055506001600360008473ffffffffffffffffffffffffffffffffffffffff1673ffffffffffffffffffffffffffffffffffffffff16815260200190815260200160002060008282546119599190613084565b92505081905550816002600083815260200190815260200160002060006101000a81548173ffffffffffffffffffffffffffffffffffffffff021916908373ffffffffffffffffffffffffffffffffffffffff160217905550808273ffffffffffffffffffffffffffffffffffffffff168473ffffffffffffffffffffffffffffffffffffffff167fddf252ad1be2c89b69c2b068fc378daa952ba7f163c4a11628f55a4df523b3ef60405160405180910390a4611a18838383611df3565b505050565b8173ffffffffffffffffffffffffffffffffffffffff168373ffffffffffffffffffffffffffffffffffffffff1603611a8b576040517f08c379a0000000000000000000000000000000000000000000000000000000008152600401611a8290613104565b60405180910390fd5b80600560008573ffffffffffffffffffffffffffffffffffffffff1673ffffffffffffffffffffffffffffffffffffffff16815260200190815260200160002060008473ffffffffffffffffffffffffffffffffffffffff1673ffffffffffffffffffffffffffffffffffffffff16815260200190815260200160002060006101000a81548160ff0219169083151502179055508173ffffffffffffffffffffffffffffffffffffffff168373ffffffffffffffffffffffffffffffffffffffff167f17307eab39ab6107e8899845ad3d59bd9653f200f220920489ca2b5937696c3183604051611b7c91906121a8565b60405180910390a3505050565b611b948484846117b7565b611ba084848484611df8565b611bdf576040517f08c379a0000000000000000000000000000000000000000000000000000000008152600401611bd690613196565b60405180910390fd5b50505050565b60606040518060400160405280601681526020017f687474703a2f2f6c6f63616c686f73743a353535352f00000000000000000000815250905090565b606060008203611c69576040518060400160405280600181526020017f30000000000000000000000000000000000000000000000000000000000000008152509050611d7d565b600082905060005b60008214611c9b578080611c84906131b6565b915050600a82611c94919061322d565b9150611c71565b60008167ffffffffffffffff811115611cb757611cb661261c565b5b6040519080825280601f01601f191660200182016040528015611ce95781602001600182028036833780820191505090505b5090505b60008514611d7657600182611d029190613050565b9150600a85611d11919061325e565b6030611d1d9190613084565b60f81b818381518110611d3357611d3261328f565b5b60200101907effffffffffffffffffffffffffffffffffffffffffffffffffffffffffffff1916908160001a905350600a85611d6f919061322d565b9450611ced565b8093505050505b919050565b60008073ffffffffffffffffffffffffffffffffffffffff166002600084815260200190815260200160002060009054906101000a900473ffffffffffffffffffffffffffffffffffffffff1673ffffffffffffffffffffffffffffffffffffffff1614159050919050565b505050565b505050565b6000611e198473ffffffffffffffffffffffffffffffffffffffff16611589565b15611f72578373ffffffffffffffffffffffffffffffffffffffff1663150b7a02611e42611661565b8786866040518563ffffffff1660e01b8152600401611e649493929190613313565b6020604051808303816000875af1925050508015611ea057506040513d601f19601f82011682018060405250810190611e9d9190613374565b60015b611f22573d8060008114611ed0576040519150601f19603f3d011682016040523d82523d6000602084013e611ed5565b606091505b506000815103611f1a576040517f08c379a0000000000000000000000000000000000000000000000000000000008152600401611f1190613196565b60405180910390fd5b805181602001fd5b63150b7a0260e01b7bffffffffffffffffffffffffffffffffffffffffffffffffffffffff1916817bffffffffffffffffffffffffffffffffffffffffffffffffffffffff191614915050611f77565b600190505b949350505050565b6000604051905090565b600080fd5b600080fd5b6000819050919050565b611fa681611f93565b8114611fb157600080fd5b50565b600081359050611fc381611f9d565b92915050565b600060208284031215611fdf57611fde611f89565b5b6000611fed84828501611fb4565b91505092915050565b600081519050919050565b600082825260208201905092915050565b6000819050602082019050919050565b600073ffffffffffffffffffffffffffffffffffffffff82169050919050565b600061204d82612022565b9050919050565b61205d81612042565b82525050565b600061206f8383612054565b60208301905092915050565b6000602082019050919050565b600061209382611ff6565b61209d8185612001565b93506120a883612012565b8060005b838110156120d95781516120c08882612063565b97506120cb8361207b565b9250506001810190506120ac565b5085935050505092915050565b600060208201905081810360008301526121008184612088565b905092915050565b60007fffffffff0000000000000000000000000000000000000000000000000000000082169050919050565b61213d81612108565b811461214857600080fd5b50565b60008135905061215a81612134565b92915050565b60006020828403121561217657612175611f89565b5b60006121848482850161214b565b91505092915050565b60008115159050919050565b6121a28161218d565b82525050565b60006020820190506121bd6000830184612199565b92915050565b600081519050919050565b600082825260208201905092915050565b60005b838110156121fd5780820151818401526020810190506121e2565b60008484015250505050565b6000601f19601f8301169050919050565b6000612225826121c3565b61222f81856121ce565b935061223f8185602086016121df565b61224881612209565b840191505092915050565b6000602082019050818103600083015261226d818461221a565b905092915050565b61227e81612042565b82525050565b60006020820190506122996000830184612275565b92915050565b6122a881612042565b81146122b357600080fd5b50565b6000813590506122c58161229f565b92915050565b600080604083850312156122e2576122e1611f89565b5b60006122f0858286016122b6565b925050602061230185828601611fb4565b9150509250929050565b6000806040838503121561232257612321611f89565b5b600061233085828601611fb4565b925050602061234185828601611fb4565b9150509250929050565b61235481611f93565b82525050565b600060208201905061236f600083018461234b565b92915050565b60008060006060848603121561238e5761238d611f89565b5b600061239c868287016122b6565b93505060206123ad868287016122b6565b92505060406123be86828701611fb4565b9150509250925092565b6000819050919050565b60006123ed6123e86123e384612022565b6123c8565b612022565b9050919050565b60006123ff826123d2565b9050919050565b6000612411826123f4565b9050919050565b61242181612406565b82525050565b600060208201905061243c6000830184612418565b92915050565b60006020828403121561245857612457611f89565b5b6000612466848285016122b6565b91505092915050565b600061247a82612022565b9050919050565b61248a8161246f565b82525050565b7f4e487b7100000000000000000000000000000000000000000000000000000000600052602160045260246000fd5b600281106124d0576124cf612490565b5b50565b60008190506124e1826124bf565b919050565b60006124f1826124d3565b9050919050565b612501816124e6565b82525050565b600060e08201905061251c600083018a61234b565b818103602083015261252e818961221a565b90508181036040830152612542818861221a565b9050612551606083018761234b565b8181036080830152612563818661221a565b905061257260a0830185612481565b61257f60c08301846124f8565b98975050505050505050565b60006020820190506125a06000830184612481565b92915050565b6125af8161218d565b81146125ba57600080fd5b50565b6000813590506125cc816125a6565b92915050565b600080604083850312156125e9576125e8611f89565b5b60006125f7858286016122b6565b9250506020612608858286016125bd565b9150509250929050565b600080fd5b600080fd5b7f4e487b7100000000000000000000000000000000000000000000000000000000600052604160045260246000fd5b61265482612209565b810181811067ffffffffffffffff821117156126735761267261261c565b5b80604052505050565b6000612686611f7f565b9050612692828261264b565b919050565b600067ffffffffffffffff8211156126b2576126b161261c565b5b6126bb82612209565b9050602081019050919050565b82818337600083830152505050565b60006126ea6126e584612697565b61267c565b90508281526020810184848401111561270657612705612617565b5b6127118482856126c8565b509392505050565b600082601f83011261272e5761272d612612565b5b813561273e8482602086016126d7565b91505092915050565b6000806000806080858703121561276157612760611f89565b5b600061276f878288016122b6565b9450506020612780878288016122b6565b935050604061279187828801611fb4565b925050606085013567ffffffffffffffff8111156127b2576127b1611f8e565b5b6127be87828801612719565b91505092959194509250565b600080604083850312156127e1576127e0611f89565b5b60006127ef858286016122b6565b9250506020612800858286016122b6565b9150509250929050565b600081519050919050565b600082825260208201905092915050565b6000819050602082019050919050565b61283f81611f93565b82525050565b60006128518383612836565b60208301905092915050565b6000602082019050919050565b60006128758261280a565b61287f8185612815565b935061288a83612826565b8060005b838110156128bb5781516128a28882612845565b97506128ad8361285d565b92505060018101905061288e565b5085935050505092915050565b600060208201905081810360008301526128e2818461286a565b905092915050565b7f4e487b7100000000000000000000000000000000000000000000000000000000600052602260045260246000fd5b6000600282049050600182168061293157607f821691505b602082108103612944576129436128ea565b5b50919050565b7f4552433732313a20617070726f76616c20746f2063757272656e74206f776e6560008201527f7200000000000000000000000000000000000000000000000000000000000000602082015250565b60006129a66021836121ce565b91506129b18261294a565b604082019050919050565b600060208201905081810360008301526129d581612999565b9050919050565b7f4552433732313a20617070726f76652063616c6c6572206973206e6f7420746f60008201527f6b656e206f776e6572206e6f7220617070726f76656420666f7220616c6c0000602082015250565b6000612a38603e836121ce565b9150612a43826129dc565b604082019050919050565b60006020820190508181036000830152612a6781612a2b565b9050919050565b7f4552433732313a2063616c6c6572206973206e6f7420746f6b656e206f776e6560008201527f72206e6f7220617070726f766564000000000000000000000000000000000000602082015250565b6000612aca602e836121ce565b9150612ad582612a6e565b604082019050919050565b60006020820190508181036000830152612af981612abd565b9050919050565b7f4552433732313a20696e76616c696420746f6b656e2049440000000000000000600082015250565b6000612b366018836121ce565b9150612b4182612b00565b602082019050919050565b60006020820190508181036000830152612b6581612b29565b9050919050565b7f4552433732313a2061646472657373207a65726f206973206e6f74206120766160008201527f6c6964206f776e65720000000000000000000000000000000000000000000000602082015250565b6000612bc86029836121ce565b9150612bd382612b6c565b604082019050919050565b60006020820190508181036000830152612bf781612bbb565b9050919050565b600081905092915050565b6000612c14826121c3565b612c1e8185612bfe565b9350612c2e8185602086016121df565b80840191505092915050565b6000612c468285612c09565b9150612c528284612c09565b91508190509392505050565b7f596f752063616e6e6f742062757920796f7572206f776e206974656d00000000600082015250565b6000612c94601c836121ce565b9150612c9f82612c5e565b602082019050919050565b60006020820190508181036000830152612cc381612c87565b9050919050565b7f596f75206d7573742070617920746865206c6973746564207072696365000000600082015250565b6000612d00601d836121ce565b9150612d0b82612cca565b602082019050919050565b60006020820190508181036000830152612d2f81612cf3565b9050919050565b7f596f752063616e6e6f742062757920616e206974656d2077686963682069732060008201527f6e6f7420617661696c61626c6500000000000000000000000000000000000000602082015250565b6000612d92602d836121ce565b9150612d9d82612d36565b604082019050919050565b60006020820190508181036000830152612dc181612d85565b9050919050565b6000606082019050612ddd6000830186612481565b612dea6020830185612481565b612df7604083018461234b565b949350505050565b7f4f6e6c79206f776e657200000000000000000000000000000000000000000000600082015250565b6000612e35600a836121ce565b9150612e4082612dff565b602082019050919050565b60006020820190508181036000830152612e6481612e28565b9050919050565b7f4f6e6c7920736f6c64206974656d732063616e206265206c697374656420616760008201527f61696e0000000000000000000000000000000000000000000000000000000000602082015250565b6000612ec76023836121ce565b9150612ed282612e6b565b604082019050919050565b60006020820190508181036000830152612ef681612eba565b9050919050565b7f4552433732313a207472616e736665722066726f6d20696e636f72726563742060008201527f6f776e6572000000000000000000000000000000000000000000000000000000602082015250565b6000612f596025836121ce565b9150612f6482612efd565b604082019050919050565b60006020820190508181036000830152612f8881612f4c565b9050919050565b7f4552433732313a207472616e7366657220746f20746865207a65726f2061646460008201527f7265737300000000000000000000000000000000000000000000000000000000602082015250565b6000612feb6024836121ce565b9150612ff682612f8f565b604082019050919050565b6000602082019050818103600083015261301a81612fde565b9050919050565b7f4e487b7100000000000000000000000000000000000000000000000000000000600052601160045260246000fd5b600061305b82611f93565b915061306683611f93565b925082820390508181111561307e5761307d613021565b5b92915050565b600061308f82611f93565b915061309a83611f93565b92508282019050808211156130b2576130b1613021565b5b92915050565b7f4552433732313a20617070726f766520746f2063616c6c657200000000000000600082015250565b60006130ee6019836121ce565b91506130f9826130b8565b602082019050919050565b6000602082019050818103600083015261311d816130e1565b9050919050565b7f4552433732313a207472616e7366657220746f206e6f6e20455243373231526560008201527f63656976657220696d706c656d656e7465720000000000000000000000000000602082015250565b60006131806032836121ce565b915061318b82613124565b604082019050919050565b600060208201905081810360008301526131af81613173565b9050919050565b60006131c182611f93565b91507fffffffffffffffffffffffffffffffffffffffffffffffffffffffffffffffff82036131f3576131f2613021565b5b600182019050919050565b7f4e487b7100000000000000000000000000000000000000000000000000000000600052601260045260246000fd5b600061323882611f93565b915061324383611f93565b925082613253576132526131fe565b5b828204905092915050565b600061326982611f93565b915061327483611f93565b925082613284576132836131fe565b5b828206905092915050565b7f4e487b7100000000000000000000000000000000000000000000000000000000600052603260045260246000fd5b600081519050919050565b600082825260208201905092915050565b60006132e5826132be565b6132ef81856132c9565b93506132ff8185602086016121df565b61330881612209565b840191505092915050565b60006080820190506133286000830187612275565b6133356020830186612275565b613342604083018561234b565b818103606083015261335481846132da565b905095945050505050565b60008151905061336e81612134565b92915050565b60006020828403121561338a57613389611f89565b5b60006133988482850161335f565b9150509291505056fea264697066735822122085a6c1a04c5d29f702ad3a166c32b0dc50b988c5fcb86301323d2eb830373d9764736f6c63430008110033",
  "immutableReferences": {},
  "source": "// SPDX-License-Identifier: GPL-3.0\n\npragma solidity >=0.7.0 <0.9.0;\n\nimport \"@openzeppelin/contracts/token/ERC721/ERC721.sol\";\nimport \"./POC20.sol\";\n\ncontract POC721 is ERC721 {\n\n    address payable public owner;\n    enum ItemStatus { Available, Sold }\n\n    POC20 public currencyToken;\n\n    struct Item {\n        uint tokenId;\n        string title;\n        string description;\n        uint256 price;\n        string date;\n        address payable owner;\n        ItemStatus status;\n        //string image;\n    }\n\n    mapping(uint => address[]) public tokenOwnerHistory;\n    mapping(uint => uint[]) public tokenPriceHistory;\n\n\n    mapping(uint256 => Item) public item;\n\n    constructor(uint tokenId, string memory title, string memory description, uint price, string memory date, address POC20Address) ERC721('POC_NFT_TOKEN', 'POC721') {\n        owner = payable(msg.sender);\n        _safeMint(owner, tokenId);\n        item[tokenId] = Item(tokenId, title, description, price, date, owner, ItemStatus.Available);\n        tokenOwnerHistory[tokenId].push(owner);\n        tokenPriceHistory[tokenId].push(price);\n        currencyToken = POC20(POC20Address);\n    }\n\n    function buyItem (uint tokenId) public payable{\n        require(msg.sender != owner, \"You cannot buy your own item\");\n        require(msg.value == item[tokenId].price, \"You must pay the listed price\");\n        require(item[tokenId].status == ItemStatus.Available, \"You cannot buy an item which is not available\");\n        //payable(owner).transfer(msg.value);\n        currencyToken.transferTokens(payable(msg.sender),payable(owner),msg.value);\n        _transfer(owner, msg.sender, tokenId);\n        item[tokenId].owner = payable(msg.sender);\n        item[tokenId].status = ItemStatus.Sold;\n        tokenOwnerHistory[tokenId].push(msg.sender);\n        tokenPriceHistory[tokenId].push(msg.value);\n        owner = payable(msg.sender);\n    }\n\n    function resellItem(uint tokenId, uint price) public {\n        require(msg.sender == owner, \"Only owner\");\n        require(item[tokenId].status == ItemStatus.Sold, \"Only sold items can be listed again\");\n        item[tokenId].status = ItemStatus.Available;\n        item[tokenId].price = price;\n    }\n     function _baseURI() internal pure override returns(string memory){\n        return 'http://localhost:5555/';\n    }\n\n    function getTokenOwnerHistory(uint tokenId) external view returns(address[] memory) {\n        return tokenOwnerHistory[tokenId];\n    }\n    function getPriceHistory(uint tokenId) external view returns(uint[] memory) {\n        return tokenPriceHistory[tokenId];\n    }\n}",
  "sourcePath": "/Users/Arpan.Kumar.Nandi/Documents/workspace/BlockChain POC/contracts/POC721.sol",
  "compiler": {
    "name": "solc",
    "version": "0.8.17+commit.8df45f5f.Emscripten.clang"
  },
  "schemaVersion": "3.4.10",
  "updatedAt": "2022-11-09T13:49:42.566Z",
  "devdoc": {
    "kind": "dev",
    "methods": {
      "approve(address,uint256)": {
        "details": "See {IERC721-approve}."
      },
      "balanceOf(address)": {
        "details": "See {IERC721-balanceOf}."
      },
      "getApproved(uint256)": {
        "details": "See {IERC721-getApproved}."
      },
      "isApprovedForAll(address,address)": {
        "details": "See {IERC721-isApprovedForAll}."
      },
      "name()": {
        "details": "See {IERC721Metadata-name}."
      },
      "ownerOf(uint256)": {
        "details": "See {IERC721-ownerOf}."
      },
      "safeTransferFrom(address,address,uint256)": {
        "details": "See {IERC721-safeTransferFrom}."
      },
      "safeTransferFrom(address,address,uint256,bytes)": {
        "details": "See {IERC721-safeTransferFrom}."
      },
      "setApprovalForAll(address,bool)": {
        "details": "See {IERC721-setApprovalForAll}."
      },
      "supportsInterface(bytes4)": {
        "details": "See {IERC165-supportsInterface}."
      },
      "symbol()": {
        "details": "See {IERC721Metadata-symbol}."
      },
      "tokenURI(uint256)": {
        "details": "See {IERC721Metadata-tokenURI}."
      },
      "transferFrom(address,address,uint256)": {
        "details": "See {IERC721-transferFrom}."
      }
    },
    "version": 1
  },
  "userdoc": {
    "kind": "user",
    "methods": {},
    "version": 1
  }
}