{
  "contractName": "POC721",
  "abi": [
    {
      "inputs": [
        {
          "internalType": "uint256",
          "name": "tokenId",
          "type": "uint256"
        },
        {
          "internalType": "string",
          "name": "title",
          "type": "string"
        },
        {
          "internalType": "string",
          "name": "description",
          "type": "string"
        },
        {
          "internalType": "uint256",
          "name": "price",
          "type": "uint256"
        },
        {
          "internalType": "string",
          "name": "date",
          "type": "string"
        },
        {
          "internalType": "address",
          "name": "POC20Address",
          "type": "address"
        }
      ],
      "stateMutability": "nonpayable",
      "type": "constructor"
    },
    {
      "anonymous": false,
      "inputs": [
        {
          "indexed": true,
          "internalType": "address",
          "name": "owner",
          "type": "address"
        },
        {
          "indexed": true,
          "internalType": "address",
          "name": "approved",
          "type": "address"
        },
        {
          "indexed": true,
          "internalType": "uint256",
          "name": "tokenId",
          "type": "uint256"
        }
      ],
      "name": "Approval",
      "type": "event"
    },
    {
      "anonymous": false,
      "inputs": [
        {
          "indexed": true,
          "internalType": "address",
          "name": "owner",
          "type": "address"
        },
        {
          "indexed": true,
          "internalType": "address",
          "name": "operator",
          "type": "address"
        },
        {
          "indexed": false,
          "internalType": "bool",
          "name": "approved",
          "type": "bool"
        }
      ],
      "name": "ApprovalForAll",
      "type": "event"
    },
    {
      "anonymous": false,
      "inputs": [
        {
          "indexed": true,
          "internalType": "address",
          "name": "from",
          "type": "address"
        },
        {
          "indexed": true,
          "internalType": "address",
          "name": "to",
          "type": "address"
        },
        {
          "indexed": true,
          "internalType": "uint256",
          "name": "tokenId",
          "type": "uint256"
        }
      ],
      "name": "Transfer",
      "type": "event"
    },
    {
      "inputs": [
        {
          "internalType": "address",
          "name": "to",
          "type": "address"
        },
        {
          "internalType": "uint256",
          "name": "tokenId",
          "type": "uint256"
        }
      ],
      "name": "approve",
      "outputs": [],
      "stateMutability": "nonpayable",
      "type": "function"
    },
    {
      "inputs": [
        {
          "internalType": "address",
          "name": "owner",
          "type": "address"
        }
      ],
      "name": "balanceOf",
      "outputs": [
        {
          "internalType": "uint256",
          "name": "",
          "type": "uint256"
        }
      ],
      "stateMutability": "view",
      "type": "function"
    },
    {
      "inputs": [],
      "name": "currencyToken",
      "outputs": [
        {
          "internalType": "contract POC20",
          "name": "",
          "type": "address"
        }
      ],
      "stateMutability": "view",
      "type": "function"
    },
    {
      "inputs": [
        {
          "internalType": "uint256",
          "name": "tokenId",
          "type": "uint256"
        }
      ],
      "name": "getApproved",
      "outputs": [
        {
          "internalType": "address",
          "name": "",
          "type": "address"
        }
      ],
      "stateMutability": "view",
      "type": "function"
    },
    {
      "inputs": [
        {
          "internalType": "address",
          "name": "owner",
          "type": "address"
        },
        {
          "internalType": "address",
          "name": "operator",
          "type": "address"
        }
      ],
      "name": "isApprovedForAll",
      "outputs": [
        {
          "internalType": "bool",
          "name": "",
          "type": "bool"
        }
      ],
      "stateMutability": "view",
      "type": "function"
    },
    {
      "inputs": [
        {
          "internalType": "uint256",
          "name": "",
          "type": "uint256"
        }
      ],
      "name": "item",
      "outputs": [
        {
          "internalType": "uint256",
          "name": "tokenId",
          "type": "uint256"
        },
        {
          "internalType": "string",
          "name": "title",
          "type": "string"
        },
        {
          "internalType": "string",
          "name": "description",
          "type": "string"
        },
        {
          "internalType": "uint256",
          "name": "price",
          "type": "uint256"
        },
        {
          "internalType": "string",
          "name": "date",
          "type": "string"
        },
        {
          "internalType": "address payable",
          "name": "owner",
          "type": "address"
        },
        {
          "internalType": "enum POC721.ItemStatus",
          "name": "status",
          "type": "uint8"
        }
      ],
      "stateMutability": "view",
      "type": "function"
    },
    {
      "inputs": [],
      "name": "name",
      "outputs": [
        {
          "internalType": "string",
          "name": "",
          "type": "string"
        }
      ],
      "stateMutability": "view",
      "type": "function"
    },
    {
      "inputs": [],
      "name": "owner",
      "outputs": [
        {
          "internalType": "address payable",
          "name": "",
          "type": "address"
        }
      ],
      "stateMutability": "view",
      "type": "function"
    },
    {
      "inputs": [
        {
          "internalType": "uint256",
          "name": "tokenId",
          "type": "uint256"
        }
      ],
      "name": "ownerOf",
      "outputs": [
        {
          "internalType": "address",
          "name": "",
          "type": "address"
        }
      ],
      "stateMutability": "view",
      "type": "function"
    },
    {
      "inputs": [
        {
          "internalType": "address",
          "name": "from",
          "type": "address"
        },
        {
          "internalType": "address",
          "name": "to",
          "type": "address"
        },
        {
          "internalType": "uint256",
          "name": "tokenId",
          "type": "uint256"
        }
      ],
      "name": "safeTransferFrom",
      "outputs": [],
      "stateMutability": "nonpayable",
      "type": "function"
    },
    {
      "inputs": [
        {
          "internalType": "address",
          "name": "from",
          "type": "address"
        },
        {
          "internalType": "address",
          "name": "to",
          "type": "address"
        },
        {
          "internalType": "uint256",
          "name": "tokenId",
          "type": "uint256"
        },
        {
          "internalType": "bytes",
          "name": "data",
          "type": "bytes"
        }
      ],
      "name": "safeTransferFrom",
      "outputs": [],
      "stateMutability": "nonpayable",
      "type": "function"
    },
    {
      "inputs": [
        {
          "internalType": "address",
          "name": "operator",
          "type": "address"
        },
        {
          "internalType": "bool",
          "name": "approved",
          "type": "bool"
        }
      ],
      "name": "setApprovalForAll",
      "outputs": [],
      "stateMutability": "nonpayable",
      "type": "function"
    },
    {
      "inputs": [
        {
          "internalType": "bytes4",
          "name": "interfaceId",
          "type": "bytes4"
        }
      ],
      "name": "supportsInterface",
      "outputs": [
        {
          "internalType": "bool",
          "name": "",
          "type": "bool"
        }
      ],
      "stateMutability": "view",
      "type": "function"
    },
    {
      "inputs": [],
      "name": "symbol",
      "outputs": [
        {
          "internalType": "string",
          "name": "",
          "type": "string"
        }
      ],
      "stateMutability": "view",
      "type": "function"
    },
    {
      "inputs": [
        {
          "internalType": "uint256",
          "name": "",
          "type": "uint256"
        },
        {
          "internalType": "uint256",
          "name": "",
          "type": "uint256"
        }
      ],
      "name": "tokenOwnerHistory",
      "outputs": [
        {
          "internalType": "address",
          "name": "",
          "type": "address"
        }
      ],
      "stateMutability": "view",
      "type": "function"
    },
    {
      "inputs": [
        {
          "internalType": "uint256",
          "name": "",
          "type": "uint256"
        },
        {
          "internalType": "uint256",
          "name": "",
          "type": "uint256"
        }
      ],
      "name": "tokenPriceHistory",
      "outputs": [
        {
          "internalType": "uint256",
          "name": "",
          "type": "uint256"
        }
      ],
      "stateMutability": "view",
      "type": "function"
    },
    {
      "inputs": [
        {
          "internalType": "uint256",
          "name": "tokenId",
          "type": "uint256"
        }
      ],
      "name": "tokenURI",
      "outputs": [
        {
          "internalType": "string",
          "name": "",
          "type": "string"
        }
      ],
      "stateMutability": "view",
      "type": "function"
    },
    {
      "inputs": [
        {
          "internalType": "address",
          "name": "from",
          "type": "address"
        },
        {
          "internalType": "address",
          "name": "to",
          "type": "address"
        },
        {
          "internalType": "uint256",
          "name": "tokenId",
          "type": "uint256"
        }
      ],
      "name": "transferFrom",
      "outputs": [],
      "stateMutability": "nonpayable",
      "type": "function"
    },
    {
      "inputs": [
        {
          "internalType": "uint256",
          "name": "tokenId",
          "type": "uint256"
        }
      ],
      "name": "buyItem",
      "outputs": [],
      "stateMutability": "payable",
      "type": "function"
    },
    {
      "inputs": [
        {
          "internalType": "uint256",
          "name": "tokenId",
          "type": "uint256"
        },
        {
          "internalType": "uint256",
          "name": "price",
          "type": "uint256"
        }
      ],
      "name": "resellItem",
      "outputs": [],
      "stateMutability": "nonpayable",
      "type": "function"
    },
    {
      "inputs": [
        {
          "internalType": "uint256",
          "name": "tokenId",
          "type": "uint256"
        }
      ],
      "name": "getTokenOwnerHistory",
      "outputs": [
        {
          "internalType": "address[]",
          "name": "",
          "type": "address[]"
        }
      ],
      "stateMutability": "view",
      "type": "function"
    }
  ],
  "bytecode": "0x60806040523480156200001157600080fd5b50604051620044cf380380620044cf833981810160405281019062000037919062000ad2565b6040518060400160405280600d81526020017f504f435f4e46545f544f4b454e000000000000000000000000000000000000008152506040518060400160405280600681526020017f504f4337323100000000000000000000000000000000000000000000000000008152508160009081620000b4919062000e0c565b508060019081620000c6919062000e0c565b50505033600660006101000a81548173ffffffffffffffffffffffffffffffffffffffff021916908373ffffffffffffffffffffffffffffffffffffffff1602179055506200013e600660009054906101000a900473ffffffffffffffffffffffffffffffffffffffff1687620003c860201b60201c565b6040518060e00160405280878152602001868152602001858152602001848152602001838152602001600660009054906101000a900473ffffffffffffffffffffffffffffffffffffffff1673ffffffffffffffffffffffffffffffffffffffff16815260200160006001811115620001bc57620001bb62000ef3565b5b815250600a6000888152602001908152602001600020600082015181600001556020820151816001019081620001f3919062000e0c565b5060408201518160020190816200020b919062000e0c565b506060820151816003015560808201518160040190816200022d919062000e0c565b5060a08201518160050160006101000a81548173ffffffffffffffffffffffffffffffffffffffff021916908373ffffffffffffffffffffffffffffffffffffffff16021790555060c08201518160050160146101000a81548160ff02191690836001811115620002a357620002a262000ef3565b5b021790555090505060086000878152602001908152602001600020600660009054906101000a900473ffffffffffffffffffffffffffffffffffffffff169080600181540180825580915050600190039060005260206000200160009091909190916101000a81548173ffffffffffffffffffffffffffffffffffffffff021916908373ffffffffffffffffffffffffffffffffffffffff1602179055506009600087815260200190815260200160002083908060018154018082558091505060019003906000526020600020016000909190919091505580600760006101000a81548173ffffffffffffffffffffffffffffffffffffffff021916908373ffffffffffffffffffffffffffffffffffffffff1602179055505050505050506200127b565b620003ea828260405180602001604052806000815250620003ee60201b60201c565b5050565b6200040083836200045c60201b60201c565b6200041560008484846200065560201b60201c565b62000457576040517f08c379a00000000000000000000000000000000000000000000000000000000081526004016200044e9062000fa9565b60405180910390fd5b505050565b600073ffffffffffffffffffffffffffffffffffffffff168273ffffffffffffffffffffffffffffffffffffffff1603620004ce576040517f08c379a0000000000000000000000000000000000000000000000000000000008152600401620004c5906200101b565b60405180910390fd5b620004df81620007fe60201b60201c565b1562000522576040517f08c379a000000000000000000000000000000000000000000000000000000000815260040162000519906200108d565b60405180910390fd5b62000536600083836200086a60201b60201c565b6001600360008473ffffffffffffffffffffffffffffffffffffffff1673ffffffffffffffffffffffffffffffffffffffff1681526020019081526020016000206000828254620005889190620010de565b92505081905550816002600083815260200190815260200160002060006101000a81548173ffffffffffffffffffffffffffffffffffffffff021916908373ffffffffffffffffffffffffffffffffffffffff160217905550808273ffffffffffffffffffffffffffffffffffffffff16600073ffffffffffffffffffffffffffffffffffffffff167fddf252ad1be2c89b69c2b068fc378daa952ba7f163c4a11628f55a4df523b3ef60405160405180910390a462000651600083836200086f60201b60201c565b5050565b6000620006838473ffffffffffffffffffffffffffffffffffffffff166200087460201b620014d61760201c565b15620007f1578373ffffffffffffffffffffffffffffffffffffffff1663150b7a02620006b56200089760201b60201c565b8786866040518563ffffffff1660e01b8152600401620006d9949392919062001198565b6020604051808303816000875af19250505080156200071857506040513d601f19601f8201168201806040525081019062000715919062001249565b60015b620007a0573d80600081146200074b576040519150601f19603f3d011682016040523d82523d6000602084013e62000750565b606091505b50600081510362000798576040517f08c379a00000000000000000000000000000000000000000000000000000000081526004016200078f9062000fa9565b60405180910390fd5b805181602001fd5b63150b7a0260e01b7bffffffffffffffffffffffffffffffffffffffffffffffffffffffff1916817bffffffffffffffffffffffffffffffffffffffffffffffffffffffff191614915050620007f6565b600190505b949350505050565b60008073ffffffffffffffffffffffffffffffffffffffff166002600084815260200190815260200160002060009054906101000a900473ffffffffffffffffffffffffffffffffffffffff1673ffffffffffffffffffffffffffffffffffffffff1614159050919050565b505050565b505050565b6000808273ffffffffffffffffffffffffffffffffffffffff163b119050919050565b600033905090565b6000604051905090565b600080fd5b600080fd5b6000819050919050565b620008c881620008b3565b8114620008d457600080fd5b50565b600081519050620008e881620008bd565b92915050565b600080fd5b600080fd5b6000601f19601f8301169050919050565b7f4e487b7100000000000000000000000000000000000000000000000000000000600052604160045260246000fd5b6200094382620008f8565b810181811067ffffffffffffffff8211171562000965576200096462000909565b5b80604052505050565b60006200097a6200089f565b905062000988828262000938565b919050565b600067ffffffffffffffff821115620009ab57620009aa62000909565b5b620009b682620008f8565b9050602081019050919050565b60005b83811015620009e3578082015181840152602081019050620009c6565b60008484015250505050565b600062000a0662000a00846200098d565b6200096e565b90508281526020810184848401111562000a255762000a24620008f3565b5b62000a32848285620009c3565b509392505050565b600082601f83011262000a525762000a51620008ee565b5b815162000a64848260208601620009ef565b91505092915050565b600073ffffffffffffffffffffffffffffffffffffffff82169050919050565b600062000a9a8262000a6d565b9050919050565b62000aac8162000a8d565b811462000ab857600080fd5b50565b60008151905062000acc8162000aa1565b92915050565b60008060008060008060c0878903121562000af25762000af1620008a9565b5b600062000b0289828a01620008d7565b965050602087015167ffffffffffffffff81111562000b265762000b25620008ae565b5b62000b3489828a0162000a3a565b955050604087015167ffffffffffffffff81111562000b585762000b57620008ae565b5b62000b6689828a0162000a3a565b945050606062000b7989828a01620008d7565b935050608087015167ffffffffffffffff81111562000b9d5762000b9c620008ae565b5b62000bab89828a0162000a3a565b92505060a062000bbe89828a0162000abb565b9150509295509295509295565b600081519050919050565b7f4e487b7100000000000000000000000000000000000000000000000000000000600052602260045260246000fd5b6000600282049050600182168062000c1e57607f821691505b60208210810362000c345762000c3362000bd6565b5b50919050565b60008190508160005260206000209050919050565b60006020601f8301049050919050565b600082821b905092915050565b60006008830262000c9e7fffffffffffffffffffffffffffffffffffffffffffffffffffffffffffffffff8262000c5f565b62000caa868362000c5f565b95508019841693508086168417925050509392505050565b6000819050919050565b600062000ced62000ce762000ce184620008b3565b62000cc2565b620008b3565b9050919050565b6000819050919050565b62000d098362000ccc565b62000d2162000d188262000cf4565b84845462000c6c565b825550505050565b600090565b62000d3862000d29565b62000d4581848462000cfe565b505050565b5b8181101562000d6d5762000d6160008262000d2e565b60018101905062000d4b565b5050565b601f82111562000dbc5762000d868162000c3a565b62000d918462000c4f565b8101602085101562000da1578190505b62000db962000db08562000c4f565b83018262000d4a565b50505b505050565b600082821c905092915050565b600062000de16000198460080262000dc1565b1980831691505092915050565b600062000dfc838362000dce565b9150826002028217905092915050565b62000e178262000bcb565b67ffffffffffffffff81111562000e335762000e3262000909565b5b62000e3f825462000c05565b62000e4c82828562000d71565b600060209050601f83116001811462000e84576000841562000e6f578287015190505b62000e7b858262000dee565b86555062000eeb565b601f19841662000e948662000c3a565b60005b8281101562000ebe5784890151825560018201915060208501945060208101905062000e97565b8683101562000ede578489015162000eda601f89168262000dce565b8355505b6001600288020188555050505b505050505050565b7f4e487b7100000000000000000000000000000000000000000000000000000000600052602160045260246000fd5b600082825260208201905092915050565b7f4552433732313a207472616e7366657220746f206e6f6e20455243373231526560008201527f63656976657220696d706c656d656e7465720000000000000000000000000000602082015250565b600062000f9160328362000f22565b915062000f9e8262000f33565b604082019050919050565b6000602082019050818103600083015262000fc48162000f82565b9050919050565b7f4552433732313a206d696e7420746f20746865207a65726f2061646472657373600082015250565b60006200100360208362000f22565b9150620010108262000fcb565b602082019050919050565b60006020820190508181036000830152620010368162000ff4565b9050919050565b7f4552433732313a20746f6b656e20616c7265616479206d696e74656400000000600082015250565b600062001075601c8362000f22565b915062001082826200103d565b602082019050919050565b60006020820190508181036000830152620010a88162001066565b9050919050565b7f4e487b7100000000000000000000000000000000000000000000000000000000600052601160045260246000fd5b6000620010eb82620008b3565b9150620010f883620008b3565b9250828201905080821115620011135762001112620010af565b5b92915050565b620011248162000a8d565b82525050565b6200113581620008b3565b82525050565b600081519050919050565b600082825260208201905092915050565b600062001164826200113b565b62001170818562001146565b935062001182818560208601620009c3565b6200118d81620008f8565b840191505092915050565b6000608082019050620011af600083018762001119565b620011be602083018662001119565b620011cd60408301856200112a565b8181036060830152620011e1818462001157565b905095945050505050565b60007fffffffff0000000000000000000000000000000000000000000000000000000082169050919050565b6200122381620011ec565b81146200122f57600080fd5b50565b600081519050620012438162001218565b92915050565b600060208284031215620012625762001261620008a9565b5b6000620012728482850162001232565b91505092915050565b613244806200128b6000396000f3fe60806040526004361061012a5760003560e01c806370a08231116100ab578063b88d4fde1161006f578063b88d4fde14610430578063c87b56dd14610459578063cbd894c714610496578063e7fb74c7146104d3578063e985e9c5146104ef578063f9eccb3b1461052c5761012a565b806370a0823114610331578063898e62191461036e5780638da5cb5b146103b157806395d89b41146103dc578063a22cb465146104075761012a565b80631626a418116100f25780631626a4181461023a57806323b872dd1461027757806342842e0e146102a05780636352211e146102c95780636b2fa374146103065761012a565b8063013dd3411461012f57806301ffc9a71461016c57806306fdde03146101a9578063081812fc146101d4578063095ea7b314610211575b600080fd5b34801561013b57600080fd5b5061015660048036038101906101519190611f16565b610555565b6040516101639190612033565b60405180910390f35b34801561017857600080fd5b50610193600480360381019061018e91906120ad565b6105f6565b6040516101a091906120f5565b60405180910390f35b3480156101b557600080fd5b506101be6106d8565b6040516101cb91906121a0565b60405180910390f35b3480156101e057600080fd5b506101fb60048036038101906101f69190611f16565b61076a565b60405161020891906121d1565b60405180910390f35b34801561021d57600080fd5b5061023860048036038101906102339190612218565b6107b0565b005b34801561024657600080fd5b50610261600480360381019061025c9190612258565b6108c7565b60405161026e91906122a7565b60405180910390f35b34801561028357600080fd5b5061029e600480360381019061029991906122c2565b6108f8565b005b3480156102ac57600080fd5b506102c760048036038101906102c291906122c2565b610958565b005b3480156102d557600080fd5b506102f060048036038101906102eb9190611f16565b610978565b6040516102fd91906121d1565b60405180910390f35b34801561031257600080fd5b5061031b610a29565b6040516103289190612374565b60405180910390f35b34801561033d57600080fd5b506103586004803603810190610353919061238f565b610a4f565b60405161036591906122a7565b60405180910390f35b34801561037a57600080fd5b5061039560048036038101906103909190611f16565b610b06565b6040516103a89796959493929190612454565b60405180910390f35b3480156103bd57600080fd5b506103c6610d0d565b6040516103d391906124d8565b60405180910390f35b3480156103e857600080fd5b506103f1610d33565b6040516103fe91906121a0565b60405180910390f35b34801561041357600080fd5b5061042e6004803603810190610429919061251f565b610dc5565b005b34801561043c57600080fd5b5061045760048036038101906104529190612694565b610ddb565b005b34801561046557600080fd5b50610480600480360381019061047b9190611f16565b610e3d565b60405161048d91906121a0565b60405180910390f35b3480156104a257600080fd5b506104bd60048036038101906104b89190612258565b610ea5565b6040516104ca91906121d1565b60405180910390f35b6104ed60048036038101906104e89190611f16565b610ef3565b005b3480156104fb57600080fd5b5061051660048036038101906105119190612717565b6112cb565b60405161052391906120f5565b60405180910390f35b34801561053857600080fd5b50610553600480360381019061054e9190612258565b61135f565b005b6060600860008381526020019081526020016000208054806020026020016040519081016040528092919081815260200182805480156105ea57602002820191906000526020600020905b8160009054906101000a900473ffffffffffffffffffffffffffffffffffffffff1673ffffffffffffffffffffffffffffffffffffffff16815260200190600101908083116105a0575b50505050509050919050565b60007f80ac58cd000000000000000000000000000000000000000000000000000000007bffffffffffffffffffffffffffffffffffffffffffffffffffffffff1916827bffffffffffffffffffffffffffffffffffffffffffffffffffffffff191614806106c157507f5b5e139f000000000000000000000000000000000000000000000000000000007bffffffffffffffffffffffffffffffffffffffffffffffffffffffff1916827bffffffffffffffffffffffffffffffffffffffffffffffffffffffff1916145b806106d157506106d0826114f9565b5b9050919050565b6060600080546106e790612786565b80601f016020809104026020016040519081016040528092919081815260200182805461071390612786565b80156107605780601f1061073557610100808354040283529160200191610760565b820191906000526020600020905b81548152906001019060200180831161074357829003601f168201915b5050505050905090565b600061077582611563565b6004600083815260200190815260200160002060009054906101000a900473ffffffffffffffffffffffffffffffffffffffff169050919050565b60006107bb82610978565b90508073ffffffffffffffffffffffffffffffffffffffff168373ffffffffffffffffffffffffffffffffffffffff160361082b576040517f08c379a000000000000000000000000000000000000000000000000000000000815260040161082290612829565b60405180910390fd5b8073ffffffffffffffffffffffffffffffffffffffff1661084a6115ae565b73ffffffffffffffffffffffffffffffffffffffff1614806108795750610878816108736115ae565b6112cb565b5b6108b8576040517f08c379a00000000000000000000000000000000000000000000000000000000081526004016108af906128bb565b60405180910390fd5b6108c283836115b6565b505050565b600960205281600052604060002081815481106108e357600080fd5b90600052602060002001600091509150505481565b6109096109036115ae565b8261166f565b610948576040517f08c379a000000000000000000000000000000000000000000000000000000000815260040161093f9061294d565b60405180910390fd5b610953838383611704565b505050565b61097383838360405180602001604052806000815250610ddb565b505050565b6000806002600084815260200190815260200160002060009054906101000a900473ffffffffffffffffffffffffffffffffffffffff169050600073ffffffffffffffffffffffffffffffffffffffff168173ffffffffffffffffffffffffffffffffffffffff1603610a20576040517f08c379a0000000000000000000000000000000000000000000000000000000008152600401610a17906129b9565b60405180910390fd5b80915050919050565b600760009054906101000a900473ffffffffffffffffffffffffffffffffffffffff1681565b60008073ffffffffffffffffffffffffffffffffffffffff168273ffffffffffffffffffffffffffffffffffffffff1603610abf576040517f08c379a0000000000000000000000000000000000000000000000000000000008152600401610ab690612a4b565b60405180910390fd5b600360008373ffffffffffffffffffffffffffffffffffffffff1673ffffffffffffffffffffffffffffffffffffffff168152602001908152602001600020549050919050565b600a602052806000526040600020600091509050806000015490806001018054610b2f90612786565b80601f0160208091040260200160405190810160405280929190818152602001828054610b5b90612786565b8015610ba85780601f10610b7d57610100808354040283529160200191610ba8565b820191906000526020600020905b815481529060010190602001808311610b8b57829003601f168201915b505050505090806002018054610bbd90612786565b80601f0160208091040260200160405190810160405280929190818152602001828054610be990612786565b8015610c365780601f10610c0b57610100808354040283529160200191610c36565b820191906000526020600020905b815481529060010190602001808311610c1957829003601f168201915b505050505090806003015490806004018054610c5190612786565b80601f0160208091040260200160405190810160405280929190818152602001828054610c7d90612786565b8015610cca5780601f10610c9f57610100808354040283529160200191610cca565b820191906000526020600020905b815481529060010190602001808311610cad57829003601f168201915b5050505050908060050160009054906101000a900473ffffffffffffffffffffffffffffffffffffffff16908060050160149054906101000a900460ff16905087565b600660009054906101000a900473ffffffffffffffffffffffffffffffffffffffff1681565b606060018054610d4290612786565b80601f0160208091040260200160405190810160405280929190818152602001828054610d6e90612786565b8015610dbb5780601f10610d9057610100808354040283529160200191610dbb565b820191906000526020600020905b815481529060010190602001808311610d9e57829003601f168201915b5050505050905090565b610dd7610dd06115ae565b838361196a565b5050565b610dec610de66115ae565b8361166f565b610e2b576040517f08c379a0000000000000000000000000000000000000000000000000000000008152600401610e229061294d565b60405180910390fd5b610e3784848484611ad6565b50505050565b6060610e4882611563565b6000610e52611b32565b90506000815111610e725760405180602001604052806000815250610e9d565b80610e7c84611b6f565b604051602001610e8d929190612aa7565b6040516020818303038152906040525b915050919050565b60086020528160005260406000208181548110610ec157600080fd5b906000526020600020016000915091509054906101000a900473ffffffffffffffffffffffffffffffffffffffff1681565b600660009054906101000a900473ffffffffffffffffffffffffffffffffffffffff1673ffffffffffffffffffffffffffffffffffffffff163373ffffffffffffffffffffffffffffffffffffffff1603610f83576040517f08c379a0000000000000000000000000000000000000000000000000000000008152600401610f7a90612b17565b60405180910390fd5b600a6000828152602001908152602001600020600301543414610fdb576040517f08c379a0000000000000000000000000000000000000000000000000000000008152600401610fd290612b83565b60405180910390fd5b60006001811115610fef57610fee6123dd565b5b600a600083815260200190815260200160002060050160149054906101000a900460ff166001811115611025576110246123dd565b5b14611065576040517f08c379a000000000000000000000000000000000000000000000000000000000815260040161105c90612c15565b60405180910390fd5b600760009054906101000a900473ffffffffffffffffffffffffffffffffffffffff1673ffffffffffffffffffffffffffffffffffffffff1663a64b6e5f33600660009054906101000a900473ffffffffffffffffffffffffffffffffffffffff16346040518463ffffffff1660e01b81526004016110e693929190612c35565b600060405180830381600087803b15801561110057600080fd5b505af1158015611114573d6000803e3d6000fd5b50505050611145600660009054906101000a900473ffffffffffffffffffffffffffffffffffffffff163383611704565b33600a600083815260200190815260200160002060050160006101000a81548173ffffffffffffffffffffffffffffffffffffffff021916908373ffffffffffffffffffffffffffffffffffffffff1602179055506001600a600083815260200190815260200160002060050160146101000a81548160ff021916908360018111156111d4576111d36123dd565b5b021790555060086000828152602001908152602001600020339080600181540180825580915050600190039060005260206000200160009091909190916101000a81548173ffffffffffffffffffffffffffffffffffffffff021916908373ffffffffffffffffffffffffffffffffffffffff1602179055506009600082815260200190815260200160002034908060018154018082558091505060019003906000526020600020016000909190919091505533600660006101000a81548173ffffffffffffffffffffffffffffffffffffffff021916908373ffffffffffffffffffffffffffffffffffffffff16021790555050565b6000600560008473ffffffffffffffffffffffffffffffffffffffff1673ffffffffffffffffffffffffffffffffffffffff16815260200190815260200160002060008373ffffffffffffffffffffffffffffffffffffffff1673ffffffffffffffffffffffffffffffffffffffff16815260200190815260200160002060009054906101000a900460ff16905092915050565b600660009054906101000a900473ffffffffffffffffffffffffffffffffffffffff1673ffffffffffffffffffffffffffffffffffffffff163373ffffffffffffffffffffffffffffffffffffffff16146113ef576040517f08c379a00000000000000000000000000000000000000000000000000000000081526004016113e690612cb8565b60405180910390fd5b600180811115611402576114016123dd565b5b600a600084815260200190815260200160002060050160149054906101000a900460ff166001811115611438576114376123dd565b5b14611478576040517f08c379a000000000000000000000000000000000000000000000000000000000815260040161146f90612d4a565b60405180910390fd5b6000600a600084815260200190815260200160002060050160146101000a81548160ff021916908360018111156114b2576114b16123dd565b5b021790555080600a6000848152602001908152602001600020600301819055505050565b6000808273ffffffffffffffffffffffffffffffffffffffff163b119050919050565b60007f01ffc9a7000000000000000000000000000000000000000000000000000000007bffffffffffffffffffffffffffffffffffffffffffffffffffffffff1916827bffffffffffffffffffffffffffffffffffffffffffffffffffffffff1916149050919050565b61156c81611ccf565b6115ab576040517f08c379a00000000000000000000000000000000000000000000000000000000081526004016115a2906129b9565b60405180910390fd5b50565b600033905090565b816004600083815260200190815260200160002060006101000a81548173ffffffffffffffffffffffffffffffffffffffff021916908373ffffffffffffffffffffffffffffffffffffffff160217905550808273ffffffffffffffffffffffffffffffffffffffff1661162983610978565b73ffffffffffffffffffffffffffffffffffffffff167f8c5be1e5ebec7d5bd14f71427d1e84f3dd0314c0f7b2291e5b200ac8c7c3b92560405160405180910390a45050565b60008061167b83610978565b90508073ffffffffffffffffffffffffffffffffffffffff168473ffffffffffffffffffffffffffffffffffffffff1614806116bd57506116bc81856112cb565b5b806116fb57508373ffffffffffffffffffffffffffffffffffffffff166116e38461076a565b73ffffffffffffffffffffffffffffffffffffffff16145b91505092915050565b8273ffffffffffffffffffffffffffffffffffffffff1661172482610978565b73ffffffffffffffffffffffffffffffffffffffff161461177a576040517f08c379a000000000000000000000000000000000000000000000000000000000815260040161177190612ddc565b60405180910390fd5b600073ffffffffffffffffffffffffffffffffffffffff168273ffffffffffffffffffffffffffffffffffffffff16036117e9576040517f08c379a00000000000000000000000000000000000000000000000000000000081526004016117e090612e6e565b60405180910390fd5b6117f4838383611d3b565b6117ff6000826115b6565b6001600360008573ffffffffffffffffffffffffffffffffffffffff1673ffffffffffffffffffffffffffffffffffffffff168152602001908152602001600020600082825461184f9190612ebd565b925050819055506001600360008473ffffffffffffffffffffffffffffffffffffffff1673ffffffffffffffffffffffffffffffffffffffff16815260200190815260200160002060008282546118a69190612ef1565b92505081905550816002600083815260200190815260200160002060006101000a81548173ffffffffffffffffffffffffffffffffffffffff021916908373ffffffffffffffffffffffffffffffffffffffff160217905550808273ffffffffffffffffffffffffffffffffffffffff168473ffffffffffffffffffffffffffffffffffffffff167fddf252ad1be2c89b69c2b068fc378daa952ba7f163c4a11628f55a4df523b3ef60405160405180910390a4611965838383611d40565b505050565b8173ffffffffffffffffffffffffffffffffffffffff168373ffffffffffffffffffffffffffffffffffffffff16036119d8576040517f08c379a00000000000000000000000000000000000000000000000000000000081526004016119cf90612f71565b60405180910390fd5b80600560008573ffffffffffffffffffffffffffffffffffffffff1673ffffffffffffffffffffffffffffffffffffffff16815260200190815260200160002060008473ffffffffffffffffffffffffffffffffffffffff1673ffffffffffffffffffffffffffffffffffffffff16815260200190815260200160002060006101000a81548160ff0219169083151502179055508173ffffffffffffffffffffffffffffffffffffffff168373ffffffffffffffffffffffffffffffffffffffff167f17307eab39ab6107e8899845ad3d59bd9653f200f220920489ca2b5937696c3183604051611ac991906120f5565b60405180910390a3505050565b611ae1848484611704565b611aed84848484611d45565b611b2c576040517f08c379a0000000000000000000000000000000000000000000000000000000008152600401611b2390613003565b60405180910390fd5b50505050565b60606040518060400160405280601681526020017f687474703a2f2f6c6f63616c686f73743a353535352f00000000000000000000815250905090565b606060008203611bb6576040518060400160405280600181526020017f30000000000000000000000000000000000000000000000000000000000000008152509050611cca565b600082905060005b60008214611be8578080611bd190613023565b915050600a82611be1919061309a565b9150611bbe565b60008167ffffffffffffffff811115611c0457611c03612569565b5b6040519080825280601f01601f191660200182016040528015611c365781602001600182028036833780820191505090505b5090505b60008514611cc357600182611c4f9190612ebd565b9150600a85611c5e91906130cb565b6030611c6a9190612ef1565b60f81b818381518110611c8057611c7f6130fc565b5b60200101907effffffffffffffffffffffffffffffffffffffffffffffffffffffffffffff1916908160001a905350600a85611cbc919061309a565b9450611c3a565b8093505050505b919050565b60008073ffffffffffffffffffffffffffffffffffffffff166002600084815260200190815260200160002060009054906101000a900473ffffffffffffffffffffffffffffffffffffffff1673ffffffffffffffffffffffffffffffffffffffff1614159050919050565b505050565b505050565b6000611d668473ffffffffffffffffffffffffffffffffffffffff166114d6565b15611ebf578373ffffffffffffffffffffffffffffffffffffffff1663150b7a02611d8f6115ae565b8786866040518563ffffffff1660e01b8152600401611db19493929190613180565b6020604051808303816000875af1925050508015611ded57506040513d601f19601f82011682018060405250810190611dea91906131e1565b60015b611e6f573d8060008114611e1d576040519150601f19603f3d011682016040523d82523d6000602084013e611e22565b606091505b506000815103611e67576040517f08c379a0000000000000000000000000000000000000000000000000000000008152600401611e5e90613003565b60405180910390fd5b805181602001fd5b63150b7a0260e01b7bffffffffffffffffffffffffffffffffffffffffffffffffffffffff1916817bffffffffffffffffffffffffffffffffffffffffffffffffffffffff191614915050611ec4565b600190505b949350505050565b6000604051905090565b600080fd5b600080fd5b6000819050919050565b611ef381611ee0565b8114611efe57600080fd5b50565b600081359050611f1081611eea565b92915050565b600060208284031215611f2c57611f2b611ed6565b5b6000611f3a84828501611f01565b91505092915050565b600081519050919050565b600082825260208201905092915050565b6000819050602082019050919050565b600073ffffffffffffffffffffffffffffffffffffffff82169050919050565b6000611f9a82611f6f565b9050919050565b611faa81611f8f565b82525050565b6000611fbc8383611fa1565b60208301905092915050565b6000602082019050919050565b6000611fe082611f43565b611fea8185611f4e565b9350611ff583611f5f565b8060005b8381101561202657815161200d8882611fb0565b975061201883611fc8565b925050600181019050611ff9565b5085935050505092915050565b6000602082019050818103600083015261204d8184611fd5565b905092915050565b60007fffffffff0000000000000000000000000000000000000000000000000000000082169050919050565b61208a81612055565b811461209557600080fd5b50565b6000813590506120a781612081565b92915050565b6000602082840312156120c3576120c2611ed6565b5b60006120d184828501612098565b91505092915050565b60008115159050919050565b6120ef816120da565b82525050565b600060208201905061210a60008301846120e6565b92915050565b600081519050919050565b600082825260208201905092915050565b60005b8381101561214a57808201518184015260208101905061212f565b60008484015250505050565b6000601f19601f8301169050919050565b600061217282612110565b61217c818561211b565b935061218c81856020860161212c565b61219581612156565b840191505092915050565b600060208201905081810360008301526121ba8184612167565b905092915050565b6121cb81611f8f565b82525050565b60006020820190506121e660008301846121c2565b92915050565b6121f581611f8f565b811461220057600080fd5b50565b600081359050612212816121ec565b92915050565b6000806040838503121561222f5761222e611ed6565b5b600061223d85828601612203565b925050602061224e85828601611f01565b9150509250929050565b6000806040838503121561226f5761226e611ed6565b5b600061227d85828601611f01565b925050602061228e85828601611f01565b9150509250929050565b6122a181611ee0565b82525050565b60006020820190506122bc6000830184612298565b92915050565b6000806000606084860312156122db576122da611ed6565b5b60006122e986828701612203565b93505060206122fa86828701612203565b925050604061230b86828701611f01565b9150509250925092565b6000819050919050565b600061233a61233561233084611f6f565b612315565b611f6f565b9050919050565b600061234c8261231f565b9050919050565b600061235e82612341565b9050919050565b61236e81612353565b82525050565b60006020820190506123896000830184612365565b92915050565b6000602082840312156123a5576123a4611ed6565b5b60006123b384828501612203565b91505092915050565b60006123c782611f6f565b9050919050565b6123d7816123bc565b82525050565b7f4e487b7100000000000000000000000000000000000000000000000000000000600052602160045260246000fd5b6002811061241d5761241c6123dd565b5b50565b600081905061242e8261240c565b919050565b600061243e82612420565b9050919050565b61244e81612433565b82525050565b600060e082019050612469600083018a612298565b818103602083015261247b8189612167565b9050818103604083015261248f8188612167565b905061249e6060830187612298565b81810360808301526124b08186612167565b90506124bf60a08301856123ce565b6124cc60c0830184612445565b98975050505050505050565b60006020820190506124ed60008301846123ce565b92915050565b6124fc816120da565b811461250757600080fd5b50565b600081359050612519816124f3565b92915050565b6000806040838503121561253657612535611ed6565b5b600061254485828601612203565b92505060206125558582860161250a565b9150509250929050565b600080fd5b600080fd5b7f4e487b7100000000000000000000000000000000000000000000000000000000600052604160045260246000fd5b6125a182612156565b810181811067ffffffffffffffff821117156125c0576125bf612569565b5b80604052505050565b60006125d3611ecc565b90506125df8282612598565b919050565b600067ffffffffffffffff8211156125ff576125fe612569565b5b61260882612156565b9050602081019050919050565b82818337600083830152505050565b6000612637612632846125e4565b6125c9565b90508281526020810184848401111561265357612652612564565b5b61265e848285612615565b509392505050565b600082601f83011261267b5761267a61255f565b5b813561268b848260208601612624565b91505092915050565b600080600080608085870312156126ae576126ad611ed6565b5b60006126bc87828801612203565b94505060206126cd87828801612203565b93505060406126de87828801611f01565b925050606085013567ffffffffffffffff8111156126ff576126fe611edb565b5b61270b87828801612666565b91505092959194509250565b6000806040838503121561272e5761272d611ed6565b5b600061273c85828601612203565b925050602061274d85828601612203565b9150509250929050565b7f4e487b7100000000000000000000000000000000000000000000000000000000600052602260045260246000fd5b6000600282049050600182168061279e57607f821691505b6020821081036127b1576127b0612757565b5b50919050565b7f4552433732313a20617070726f76616c20746f2063757272656e74206f776e6560008201527f7200000000000000000000000000000000000000000000000000000000000000602082015250565b600061281360218361211b565b915061281e826127b7565b604082019050919050565b6000602082019050818103600083015261284281612806565b9050919050565b7f4552433732313a20617070726f76652063616c6c6572206973206e6f7420746f60008201527f6b656e206f776e6572206e6f7220617070726f76656420666f7220616c6c0000602082015250565b60006128a5603e8361211b565b91506128b082612849565b604082019050919050565b600060208201905081810360008301526128d481612898565b9050919050565b7f4552433732313a2063616c6c6572206973206e6f7420746f6b656e206f776e6560008201527f72206e6f7220617070726f766564000000000000000000000000000000000000602082015250565b6000612937602e8361211b565b9150612942826128db565b604082019050919050565b600060208201905081810360008301526129668161292a565b9050919050565b7f4552433732313a20696e76616c696420746f6b656e2049440000000000000000600082015250565b60006129a360188361211b565b91506129ae8261296d565b602082019050919050565b600060208201905081810360008301526129d281612996565b9050919050565b7f4552433732313a2061646472657373207a65726f206973206e6f74206120766160008201527f6c6964206f776e65720000000000000000000000000000000000000000000000602082015250565b6000612a3560298361211b565b9150612a40826129d9565b604082019050919050565b60006020820190508181036000830152612a6481612a28565b9050919050565b600081905092915050565b6000612a8182612110565b612a8b8185612a6b565b9350612a9b81856020860161212c565b80840191505092915050565b6000612ab38285612a76565b9150612abf8284612a76565b91508190509392505050565b7f596f752063616e6e6f742062757920796f7572206f776e206974656d00000000600082015250565b6000612b01601c8361211b565b9150612b0c82612acb565b602082019050919050565b60006020820190508181036000830152612b3081612af4565b9050919050565b7f596f75206d7573742070617920746865206c6973746564207072696365000000600082015250565b6000612b6d601d8361211b565b9150612b7882612b37565b602082019050919050565b60006020820190508181036000830152612b9c81612b60565b9050919050565b7f596f752063616e6e6f742062757920616e206974656d2077686963682069732060008201527f6e6f7420617661696c61626c6500000000000000000000000000000000000000602082015250565b6000612bff602d8361211b565b9150612c0a82612ba3565b604082019050919050565b60006020820190508181036000830152612c2e81612bf2565b9050919050565b6000606082019050612c4a60008301866123ce565b612c5760208301856123ce565b612c646040830184612298565b949350505050565b7f4f6e6c79206f776e657200000000000000000000000000000000000000000000600082015250565b6000612ca2600a8361211b565b9150612cad82612c6c565b602082019050919050565b60006020820190508181036000830152612cd181612c95565b9050919050565b7f4f6e6c7920736f6c64206974656d732063616e206265206c697374656420616760008201527f61696e0000000000000000000000000000000000000000000000000000000000602082015250565b6000612d3460238361211b565b9150612d3f82612cd8565b604082019050919050565b60006020820190508181036000830152612d6381612d27565b9050919050565b7f4552433732313a207472616e736665722066726f6d20696e636f72726563742060008201527f6f776e6572000000000000000000000000000000000000000000000000000000602082015250565b6000612dc660258361211b565b9150612dd182612d6a565b604082019050919050565b60006020820190508181036000830152612df581612db9565b9050919050565b7f4552433732313a207472616e7366657220746f20746865207a65726f2061646460008201527f7265737300000000000000000000000000000000000000000000000000000000602082015250565b6000612e5860248361211b565b9150612e6382612dfc565b604082019050919050565b60006020820190508181036000830152612e8781612e4b565b9050919050565b7f4e487b7100000000000000000000000000000000000000000000000000000000600052601160045260246000fd5b6000612ec882611ee0565b9150612ed383611ee0565b9250828203905081811115612eeb57612eea612e8e565b5b92915050565b6000612efc82611ee0565b9150612f0783611ee0565b9250828201905080821115612f1f57612f1e612e8e565b5b92915050565b7f4552433732313a20617070726f766520746f2063616c6c657200000000000000600082015250565b6000612f5b60198361211b565b9150612f6682612f25565b602082019050919050565b60006020820190508181036000830152612f8a81612f4e565b9050919050565b7f4552433732313a207472616e7366657220746f206e6f6e20455243373231526560008201527f63656976657220696d706c656d656e7465720000000000000000000000000000602082015250565b6000612fed60328361211b565b9150612ff882612f91565b604082019050919050565b6000602082019050818103600083015261301c81612fe0565b9050919050565b600061302e82611ee0565b91507fffffffffffffffffffffffffffffffffffffffffffffffffffffffffffffffff82036130605761305f612e8e565b5b600182019050919050565b7f4e487b7100000000000000000000000000000000000000000000000000000000600052601260045260246000fd5b60006130a582611ee0565b91506130b083611ee0565b9250826130c0576130bf61306b565b5b828204905092915050565b60006130d682611ee0565b91506130e183611ee0565b9250826130f1576130f061306b565b5b828206905092915050565b7f4e487b7100000000000000000000000000000000000000000000000000000000600052603260045260246000fd5b600081519050919050565b600082825260208201905092915050565b60006131528261312b565b61315c8185613136565b935061316c81856020860161212c565b61317581612156565b840191505092915050565b600060808201905061319560008301876121c2565b6131a260208301866121c2565b6131af6040830185612298565b81810360608301526131c18184613147565b905095945050505050565b6000815190506131db81612081565b92915050565b6000602082840312156131f7576131f6611ed6565b5b6000613205848285016131cc565b9150509291505056fea2646970667358221220f81e78c51192ee026502c0d3ca73d8c7a05e1522f6a8fce6d4eadba8b8a7e4a864736f6c63430008110033",
  "immutableReferences": {},
  "source": "// SPDX-License-Identifier: GPL-3.0\n\npragma solidity >=0.7.0 <0.9.0;\n\nimport \"@openzeppelin/contracts/token/ERC721/ERC721.sol\";\nimport \"./POC20.sol\";\n\ncontract POC721 is ERC721 {\n\n    address payable public owner;\n    enum ItemStatus { Available, Sold }\n\n    POC20 public currencyToken;\n\n    struct Item {\n        uint tokenId;\n        string title;\n        string description;\n        uint256 price;\n        string date;\n        address payable owner;\n        ItemStatus status;\n        //string image;\n    }\n\n    mapping(uint => address[]) public tokenOwnerHistory;\n    mapping(uint => uint[]) public tokenPriceHistory;\n\n\n    mapping(uint256 => Item) public item;\n\n    constructor(uint tokenId, string memory title, string memory description, uint price, string memory date, address POC20Address) ERC721('POC_NFT_TOKEN', 'POC721') {\n        owner = payable(msg.sender);\n        _safeMint(owner, tokenId);\n        item[tokenId] = Item(tokenId, title, description, price, date, owner, ItemStatus.Available);\n        tokenOwnerHistory[tokenId].push(owner);\n        tokenPriceHistory[tokenId].push(price);\n        currencyToken = POC20(POC20Address);\n    }\n\n    function buyItem (uint tokenId) public payable{\n        require(msg.sender != owner, \"You cannot buy your own item\");\n        require(msg.value == item[tokenId].price, \"You must pay the listed price\");\n        require(item[tokenId].status == ItemStatus.Available, \"You cannot buy an item which is not available\");\n        //payable(owner).transfer(msg.value);\n        currencyToken.transferTokens(payable(msg.sender),payable(owner),msg.value);\n        _transfer(owner, msg.sender, tokenId);\n        item[tokenId].owner = payable(msg.sender);\n        item[tokenId].status = ItemStatus.Sold;\n        tokenOwnerHistory[tokenId].push(msg.sender);\n        tokenPriceHistory[tokenId].push(msg.value);\n        owner = payable(msg.sender);\n    }\n\n    function resellItem(uint tokenId, uint price) public {\n        require(msg.sender == owner, \"Only owner\");\n        require(item[tokenId].status == ItemStatus.Sold, \"Only sold items can be listed again\");\n        item[tokenId].status = ItemStatus.Available;\n        item[tokenId].price = price;\n    }\n     function _baseURI() internal pure override returns(string memory){\n        return 'http://localhost:5555/';\n    }\n\n    function getTokenOwnerHistory(uint tokenId) external view returns(address[] memory) {\n        return tokenOwnerHistory[tokenId];\n    }\n}",
  "sourcePath": "/Users/Arpan.Kumar.Nandi/Documents/workspace/BlockChain POC/contracts/POC721.sol",
  "compiler": {
    "name": "solc",
    "version": "0.8.17+commit.8df45f5f.Emscripten.clang"
  },
  "schemaVersion": "3.4.10",
  "updatedAt": "2022-11-08T13:36:29.208Z",
  "devdoc": {
    "kind": "dev",
    "methods": {
      "approve(address,uint256)": {
        "details": "See {IERC721-approve}."
      },
      "balanceOf(address)": {
        "details": "See {IERC721-balanceOf}."
      },
      "getApproved(uint256)": {
        "details": "See {IERC721-getApproved}."
      },
      "isApprovedForAll(address,address)": {
        "details": "See {IERC721-isApprovedForAll}."
      },
      "name()": {
        "details": "See {IERC721Metadata-name}."
      },
      "ownerOf(uint256)": {
        "details": "See {IERC721-ownerOf}."
      },
      "safeTransferFrom(address,address,uint256)": {
        "details": "See {IERC721-safeTransferFrom}."
      },
      "safeTransferFrom(address,address,uint256,bytes)": {
        "details": "See {IERC721-safeTransferFrom}."
      },
      "setApprovalForAll(address,bool)": {
        "details": "See {IERC721-setApprovalForAll}."
      },
      "supportsInterface(bytes4)": {
        "details": "See {IERC165-supportsInterface}."
      },
      "symbol()": {
        "details": "See {IERC721Metadata-symbol}."
      },
      "tokenURI(uint256)": {
        "details": "See {IERC721Metadata-tokenURI}."
      },
      "transferFrom(address,address,uint256)": {
        "details": "See {IERC721-transferFrom}."
      }
    },
    "version": 1
  },
  "userdoc": {
    "kind": "user",
    "methods": {},
    "version": 1
  }
}