{
  "contractName": "POC20",
  "abi": [
    {
      "inputs": [
        {
          "internalType": "uint256",
          "name": "exchangeRate",
          "type": "uint256"
        }
      ],
      "stateMutability": "nonpayable",
      "type": "constructor"
    },
    {
      "anonymous": false,
      "inputs": [
        {
          "indexed": true,
          "internalType": "address",
          "name": "owner",
          "type": "address"
        },
        {
          "indexed": true,
          "internalType": "address",
          "name": "spender",
          "type": "address"
        },
        {
          "indexed": false,
          "internalType": "uint256",
          "name": "value",
          "type": "uint256"
        }
      ],
      "name": "Approval",
      "type": "event"
    },
    {
      "anonymous": false,
      "inputs": [
        {
          "indexed": true,
          "internalType": "address",
          "name": "from",
          "type": "address"
        },
        {
          "indexed": true,
          "internalType": "address",
          "name": "to",
          "type": "address"
        },
        {
          "indexed": false,
          "internalType": "uint256",
          "name": "value",
          "type": "uint256"
        }
      ],
      "name": "Transfer",
      "type": "event"
    },
    {
      "inputs": [
        {
          "internalType": "address",
          "name": "owner",
          "type": "address"
        },
        {
          "internalType": "address",
          "name": "spender",
          "type": "address"
        }
      ],
      "name": "allowance",
      "outputs": [
        {
          "internalType": "uint256",
          "name": "",
          "type": "uint256"
        }
      ],
      "stateMutability": "view",
      "type": "function"
    },
    {
      "inputs": [
        {
          "internalType": "address",
          "name": "spender",
          "type": "address"
        },
        {
          "internalType": "uint256",
          "name": "amount",
          "type": "uint256"
        }
      ],
      "name": "approve",
      "outputs": [
        {
          "internalType": "bool",
          "name": "",
          "type": "bool"
        }
      ],
      "stateMutability": "nonpayable",
      "type": "function"
    },
    {
      "inputs": [
        {
          "internalType": "address",
          "name": "account",
          "type": "address"
        }
      ],
      "name": "balanceOf",
      "outputs": [
        {
          "internalType": "uint256",
          "name": "",
          "type": "uint256"
        }
      ],
      "stateMutability": "view",
      "type": "function"
    },
    {
      "inputs": [],
      "name": "decimals",
      "outputs": [
        {
          "internalType": "uint8",
          "name": "",
          "type": "uint8"
        }
      ],
      "stateMutability": "view",
      "type": "function"
    },
    {
      "inputs": [
        {
          "internalType": "address",
          "name": "spender",
          "type": "address"
        },
        {
          "internalType": "uint256",
          "name": "subtractedValue",
          "type": "uint256"
        }
      ],
      "name": "decreaseAllowance",
      "outputs": [
        {
          "internalType": "bool",
          "name": "",
          "type": "bool"
        }
      ],
      "stateMutability": "nonpayable",
      "type": "function"
    },
    {
      "inputs": [
        {
          "internalType": "address",
          "name": "spender",
          "type": "address"
        },
        {
          "internalType": "uint256",
          "name": "addedValue",
          "type": "uint256"
        }
      ],
      "name": "increaseAllowance",
      "outputs": [
        {
          "internalType": "bool",
          "name": "",
          "type": "bool"
        }
      ],
      "stateMutability": "nonpayable",
      "type": "function"
    },
    {
      "inputs": [],
      "name": "name",
      "outputs": [
        {
          "internalType": "string",
          "name": "",
          "type": "string"
        }
      ],
      "stateMutability": "view",
      "type": "function"
    },
    {
      "inputs": [],
      "name": "symbol",
      "outputs": [
        {
          "internalType": "string",
          "name": "",
          "type": "string"
        }
      ],
      "stateMutability": "view",
      "type": "function"
    },
    {
      "inputs": [],
      "name": "tokensPerUnitEther",
      "outputs": [
        {
          "internalType": "uint256",
          "name": "",
          "type": "uint256"
        }
      ],
      "stateMutability": "view",
      "type": "function"
    },
    {
      "inputs": [],
      "name": "totalSupply",
      "outputs": [
        {
          "internalType": "uint256",
          "name": "",
          "type": "uint256"
        }
      ],
      "stateMutability": "view",
      "type": "function"
    },
    {
      "inputs": [
        {
          "internalType": "address",
          "name": "to",
          "type": "address"
        },
        {
          "internalType": "uint256",
          "name": "amount",
          "type": "uint256"
        }
      ],
      "name": "transfer",
      "outputs": [
        {
          "internalType": "bool",
          "name": "",
          "type": "bool"
        }
      ],
      "stateMutability": "nonpayable",
      "type": "function"
    },
    {
      "inputs": [
        {
          "internalType": "address",
          "name": "from",
          "type": "address"
        },
        {
          "internalType": "address",
          "name": "to",
          "type": "address"
        },
        {
          "internalType": "uint256",
          "name": "amount",
          "type": "uint256"
        }
      ],
      "name": "transferFrom",
      "outputs": [
        {
          "internalType": "bool",
          "name": "",
          "type": "bool"
        }
      ],
      "stateMutability": "nonpayable",
      "type": "function"
    },
    {
      "inputs": [],
      "name": "buyTokens",
      "outputs": [],
      "stateMutability": "payable",
      "type": "function"
    },
    {
      "inputs": [
        {
          "internalType": "address payable",
          "name": "from",
          "type": "address"
        },
        {
          "internalType": "address payable",
          "name": "to",
          "type": "address"
        },
        {
          "internalType": "uint256",
          "name": "amount",
          "type": "uint256"
        }
      ],
      "name": "transferTokens",
      "outputs": [],
      "stateMutability": "payable",
      "type": "function"
    }
  ],
  "bytecode": "0x60806040523480156200001157600080fd5b5060405162001ca838038062001ca8833981810160405281019062000037919062000158565b6040518060400160405280600981526020017f504f435f544f4b454e00000000000000000000000000000000000000000000008152506040518060400160405280600581526020017f504f4332300000000000000000000000000000000000000000000000000000008152508160039081620000b49190620003fa565b508060049081620000c69190620003fa565b5050508060058190555033600660006101000a81548173ffffffffffffffffffffffffffffffffffffffff021916908373ffffffffffffffffffffffffffffffffffffffff16021790555050620004e1565b600080fd5b6000819050919050565b62000132816200011d565b81146200013e57600080fd5b50565b600081519050620001528162000127565b92915050565b60006020828403121562000171576200017062000118565b5b6000620001818482850162000141565b91505092915050565b600081519050919050565b7f4e487b7100000000000000000000000000000000000000000000000000000000600052604160045260246000fd5b7f4e487b7100000000000000000000000000000000000000000000000000000000600052602260045260246000fd5b600060028204905060018216806200020c57607f821691505b602082108103620002225762000221620001c4565b5b50919050565b60008190508160005260206000209050919050565b60006020601f8301049050919050565b600082821b905092915050565b6000600883026200028c7fffffffffffffffffffffffffffffffffffffffffffffffffffffffffffffffff826200024d565b6200029886836200024d565b95508019841693508086168417925050509392505050565b6000819050919050565b6000620002db620002d5620002cf846200011d565b620002b0565b6200011d565b9050919050565b6000819050919050565b620002f783620002ba565b6200030f6200030682620002e2565b8484546200025a565b825550505050565b600090565b6200032662000317565b62000333818484620002ec565b505050565b5b818110156200035b576200034f6000826200031c565b60018101905062000339565b5050565b601f821115620003aa57620003748162000228565b6200037f846200023d565b810160208510156200038f578190505b620003a76200039e856200023d565b83018262000338565b50505b505050565b600082821c905092915050565b6000620003cf60001984600802620003af565b1980831691505092915050565b6000620003ea8383620003bc565b9150826002028217905092915050565b62000405826200018a565b67ffffffffffffffff81111562000421576200042062000195565b5b6200042d8254620001f3565b6200043a8282856200035f565b600060209050601f8311600181146200047257600084156200045d578287015190505b620004698582620003dc565b865550620004d9565b601f198416620004828662000228565b60005b82811015620004ac5784890151825560018201915060208501945060208101905062000485565b86831015620004cc5784890151620004c8601f891682620003bc565b8355505b6001600288020188555050505b505050505050565b6117b780620004f16000396000f3fe6080604052600436106100dd5760003560e01c806395d89b411161007f578063a9059cbb11610059578063a9059cbb146102db578063cace4b7314610318578063d0febe4c14610343578063dd62ed3e1461034d576100dd565b806395d89b4114610257578063a457c2d714610282578063a64b6e5f146102bf576100dd565b806323b872dd116100bb57806323b872dd14610175578063313ce567146101b257806339509351146101dd57806370a082311461021a576100dd565b806306fdde03146100e2578063095ea7b31461010d57806318160ddd1461014a575b600080fd5b3480156100ee57600080fd5b506100f761038a565b6040516101049190610ec3565b60405180910390f35b34801561011957600080fd5b50610134600480360381019061012f9190610f7e565b61041c565b6040516101419190610fd9565b60405180910390f35b34801561015657600080fd5b5061015f61043f565b60405161016c9190611003565b60405180910390f35b34801561018157600080fd5b5061019c6004803603810190610197919061101e565b610449565b6040516101a99190610fd9565b60405180910390f35b3480156101be57600080fd5b506101c7610478565b6040516101d4919061108d565b60405180910390f35b3480156101e957600080fd5b5061020460048036038101906101ff9190610f7e565b610481565b6040516102119190610fd9565b60405180910390f35b34801561022657600080fd5b50610241600480360381019061023c91906110a8565b6104b8565b60405161024e9190611003565b60405180910390f35b34801561026357600080fd5b5061026c610500565b6040516102799190610ec3565b60405180910390f35b34801561028e57600080fd5b506102a960048036038101906102a49190610f7e565b610592565b6040516102b69190610fd9565b60405180910390f35b6102d960048036038101906102d49190611113565b610609565b005b3480156102e757600080fd5b5061030260048036038101906102fd9190610f7e565b610619565b60405161030f9190610fd9565b60405180910390f35b34801561032457600080fd5b5061032d61063c565b60405161033a9190611003565b60405180910390f35b61034b610642565b005b34801561035957600080fd5b50610374600480360381019061036f9190611166565b610767565b6040516103819190611003565b60405180910390f35b606060038054610399906111d5565b80601f01602080910402602001604051908101604052809291908181526020018280546103c5906111d5565b80156104125780601f106103e757610100808354040283529160200191610412565b820191906000526020600020905b8154815290600101906020018083116103f557829003601f168201915b5050505050905090565b6000806104276107ee565b90506104348185856107f6565b600191505092915050565b6000600254905090565b6000806104546107ee565b90506104618582856109bf565b61046c858585610a4b565b60019150509392505050565b60006012905090565b60008061048c6107ee565b90506104ad81858561049e8589610767565b6104a89190611235565b6107f6565b600191505092915050565b60008060008373ffffffffffffffffffffffffffffffffffffffff1673ffffffffffffffffffffffffffffffffffffffff168152602001908152602001600020549050919050565b60606004805461050f906111d5565b80601f016020809104026020016040519081016040528092919081815260200182805461053b906111d5565b80156105885780601f1061055d57610100808354040283529160200191610588565b820191906000526020600020905b81548152906001019060200180831161056b57829003601f168201915b5050505050905090565b60008061059d6107ee565b905060006105ab8286610767565b9050838110156105f0576040517f08c379a00000000000000000000000000000000000000000000000000000000081526004016105e7906112db565b60405180910390fd5b6105fd82868684036107f6565b60019250505092915050565b610614838383610a4b565b505050565b6000806106246107ee565b9050610631818585610a4b565b600191505092915050565b60055481565b60003411610685576040517f08c379a000000000000000000000000000000000000000000000000000000000815260040161067c9061136d565b60405180910390fd5b600660009054906101000a900473ffffffffffffffffffffffffffffffffffffffff1673ffffffffffffffffffffffffffffffffffffffff163373ffffffffffffffffffffffffffffffffffffffff16036106df57600080fd5b6000600554346106ef919061138d565b9050600660009054906101000a900473ffffffffffffffffffffffffffffffffffffffff1673ffffffffffffffffffffffffffffffffffffffff166108fc349081150290604051600060405180830381858888f19350505050158015610759573d6000803e3d6000fd5b506107643382610cca565b50565b6000600160008473ffffffffffffffffffffffffffffffffffffffff1673ffffffffffffffffffffffffffffffffffffffff16815260200190815260200160002060008373ffffffffffffffffffffffffffffffffffffffff1673ffffffffffffffffffffffffffffffffffffffff16815260200190815260200160002054905092915050565b600033905090565b600073ffffffffffffffffffffffffffffffffffffffff168373ffffffffffffffffffffffffffffffffffffffff1603610865576040517f08c379a000000000000000000000000000000000000000000000000000000000815260040161085c90611441565b60405180910390fd5b600073ffffffffffffffffffffffffffffffffffffffff168273ffffffffffffffffffffffffffffffffffffffff16036108d4576040517f08c379a00000000000000000000000000000000000000000000000000000000081526004016108cb906114d3565b60405180910390fd5b80600160008573ffffffffffffffffffffffffffffffffffffffff1673ffffffffffffffffffffffffffffffffffffffff16815260200190815260200160002060008473ffffffffffffffffffffffffffffffffffffffff1673ffffffffffffffffffffffffffffffffffffffff168152602001908152602001600020819055508173ffffffffffffffffffffffffffffffffffffffff168373ffffffffffffffffffffffffffffffffffffffff167f8c5be1e5ebec7d5bd14f71427d1e84f3dd0314c0f7b2291e5b200ac8c7c3b925836040516109b29190611003565b60405180910390a3505050565b60006109cb8484610767565b90507fffffffffffffffffffffffffffffffffffffffffffffffffffffffffffffffff8114610a455781811015610a37576040517f08c379a0000000000000000000000000000000000000000000000000000000008152600401610a2e9061153f565b60405180910390fd5b610a4484848484036107f6565b5b50505050565b600073ffffffffffffffffffffffffffffffffffffffff168373ffffffffffffffffffffffffffffffffffffffff1603610aba576040517f08c379a0000000000000000000000000000000000000000000000000000000008152600401610ab1906115d1565b60405180910390fd5b600073ffffffffffffffffffffffffffffffffffffffff168273ffffffffffffffffffffffffffffffffffffffff1603610b29576040517f08c379a0000000000000000000000000000000000000000000000000000000008152600401610b2090611663565b60405180910390fd5b610b34838383610e29565b60008060008573ffffffffffffffffffffffffffffffffffffffff1673ffffffffffffffffffffffffffffffffffffffff16815260200190815260200160002054905081811015610bba576040517f08c379a0000000000000000000000000000000000000000000000000000000008152600401610bb1906116f5565b60405180910390fd5b8181036000808673ffffffffffffffffffffffffffffffffffffffff1673ffffffffffffffffffffffffffffffffffffffff16815260200190815260200160002081905550816000808573ffffffffffffffffffffffffffffffffffffffff1673ffffffffffffffffffffffffffffffffffffffff1681526020019081526020016000206000828254610c4d9190611235565b925050819055508273ffffffffffffffffffffffffffffffffffffffff168473ffffffffffffffffffffffffffffffffffffffff167fddf252ad1be2c89b69c2b068fc378daa952ba7f163c4a11628f55a4df523b3ef84604051610cb19190611003565b60405180910390a3610cc4848484610e2e565b50505050565b600073ffffffffffffffffffffffffffffffffffffffff168273ffffffffffffffffffffffffffffffffffffffff1603610d39576040517f08c379a0000000000000000000000000000000000000000000000000000000008152600401610d3090611761565b60405180910390fd5b610d4560008383610e29565b8060026000828254610d579190611235565b92505081905550806000808473ffffffffffffffffffffffffffffffffffffffff1673ffffffffffffffffffffffffffffffffffffffff1681526020019081526020016000206000828254610dac9190611235565b925050819055508173ffffffffffffffffffffffffffffffffffffffff16600073ffffffffffffffffffffffffffffffffffffffff167fddf252ad1be2c89b69c2b068fc378daa952ba7f163c4a11628f55a4df523b3ef83604051610e119190611003565b60405180910390a3610e2560008383610e2e565b5050565b505050565b505050565b600081519050919050565b600082825260208201905092915050565b60005b83811015610e6d578082015181840152602081019050610e52565b60008484015250505050565b6000601f19601f8301169050919050565b6000610e9582610e33565b610e9f8185610e3e565b9350610eaf818560208601610e4f565b610eb881610e79565b840191505092915050565b60006020820190508181036000830152610edd8184610e8a565b905092915050565b600080fd5b600073ffffffffffffffffffffffffffffffffffffffff82169050919050565b6000610f1582610eea565b9050919050565b610f2581610f0a565b8114610f3057600080fd5b50565b600081359050610f4281610f1c565b92915050565b6000819050919050565b610f5b81610f48565b8114610f6657600080fd5b50565b600081359050610f7881610f52565b92915050565b60008060408385031215610f9557610f94610ee5565b5b6000610fa385828601610f33565b9250506020610fb485828601610f69565b9150509250929050565b60008115159050919050565b610fd381610fbe565b82525050565b6000602082019050610fee6000830184610fca565b92915050565b610ffd81610f48565b82525050565b60006020820190506110186000830184610ff4565b92915050565b60008060006060848603121561103757611036610ee5565b5b600061104586828701610f33565b935050602061105686828701610f33565b925050604061106786828701610f69565b9150509250925092565b600060ff82169050919050565b61108781611071565b82525050565b60006020820190506110a2600083018461107e565b92915050565b6000602082840312156110be576110bd610ee5565b5b60006110cc84828501610f33565b91505092915050565b60006110e082610eea565b9050919050565b6110f0816110d5565b81146110fb57600080fd5b50565b60008135905061110d816110e7565b92915050565b60008060006060848603121561112c5761112b610ee5565b5b600061113a868287016110fe565b935050602061114b868287016110fe565b925050604061115c86828701610f69565b9150509250925092565b6000806040838503121561117d5761117c610ee5565b5b600061118b85828601610f33565b925050602061119c85828601610f33565b9150509250929050565b7f4e487b7100000000000000000000000000000000000000000000000000000000600052602260045260246000fd5b600060028204905060018216806111ed57607f821691505b602082108103611200576111ff6111a6565b5b50919050565b7f4e487b7100000000000000000000000000000000000000000000000000000000600052601160045260246000fd5b600061124082610f48565b915061124b83610f48565b925082820190508082111561126357611262611206565b5b92915050565b7f45524332303a2064656372656173656420616c6c6f77616e63652062656c6f7760008201527f207a65726f000000000000000000000000000000000000000000000000000000602082015250565b60006112c5602583610e3e565b91506112d082611269565b604082019050919050565b600060208201905081810360008301526112f4816112b8565b9050919050565b7f596f75206e6565642065786368616e676520736f6d652065746865727320666f60008201527f7220504f43323000000000000000000000000000000000000000000000000000602082015250565b6000611357602783610e3e565b9150611362826112fb565b604082019050919050565b600060208201905081810360008301526113868161134a565b9050919050565b600061139882610f48565b91506113a383610f48565b92508282026113b181610f48565b915082820484148315176113c8576113c7611206565b5b5092915050565b7f45524332303a20617070726f76652066726f6d20746865207a65726f2061646460008201527f7265737300000000000000000000000000000000000000000000000000000000602082015250565b600061142b602483610e3e565b9150611436826113cf565b604082019050919050565b6000602082019050818103600083015261145a8161141e565b9050919050565b7f45524332303a20617070726f766520746f20746865207a65726f20616464726560008201527f7373000000000000000000000000000000000000000000000000000000000000602082015250565b60006114bd602283610e3e565b91506114c882611461565b604082019050919050565b600060208201905081810360008301526114ec816114b0565b9050919050565b7f45524332303a20696e73756666696369656e7420616c6c6f77616e6365000000600082015250565b6000611529601d83610e3e565b9150611534826114f3565b602082019050919050565b600060208201905081810360008301526115588161151c565b9050919050565b7f45524332303a207472616e736665722066726f6d20746865207a65726f20616460008201527f6472657373000000000000000000000000000000000000000000000000000000602082015250565b60006115bb602583610e3e565b91506115c68261155f565b604082019050919050565b600060208201905081810360008301526115ea816115ae565b9050919050565b7f45524332303a207472616e7366657220746f20746865207a65726f206164647260008201527f6573730000000000000000000000000000000000000000000000000000000000602082015250565b600061164d602383610e3e565b9150611658826115f1565b604082019050919050565b6000602082019050818103600083015261167c81611640565b9050919050565b7f45524332303a207472616e7366657220616d6f756e742065786365656473206260008201527f616c616e63650000000000000000000000000000000000000000000000000000602082015250565b60006116df602683610e3e565b91506116ea82611683565b604082019050919050565b6000602082019050818103600083015261170e816116d2565b9050919050565b7f45524332303a206d696e7420746f20746865207a65726f206164647265737300600082015250565b600061174b601f83610e3e565b915061175682611715565b602082019050919050565b6000602082019050818103600083015261177a8161173e565b905091905056fea26469706673582212207474e89b6c0d1f9d81207937a713131376ad1725dc000e5ba298848d3c34a55964736f6c63430008110033",
  "immutableReferences": {},
  "source": "// SPDX-License-Identifier: GPL-3.0\n\npragma solidity >=0.7.0 <0.9.0;\n\nimport \"@openzeppelin/contracts/token/ERC20/ERC20.sol\";\n\ncontract POC20 is ERC20 {\n\n    uint public tokensPerUnitEther;\n    address payable owner;\n\n    constructor(uint exchangeRate) ERC20('POC_TOKEN', 'POC20') {\n        tokensPerUnitEther = exchangeRate;\n        owner = payable(msg.sender);\n\n    }\n\n    function buyTokens() public payable {\n        require(msg.value > 0, \"You need exchange some ethers for POC20\");\n        require(msg.sender != owner);\n        uint convertEtherToPOCToken = msg.value * tokensPerUnitEther;\n        payable(owner).transfer(msg.value);\n        _mint(msg.sender, convertEtherToPOCToken);\n    }\n\n    function transferTokens(address payable from, address payable to, uint amount) public payable {\n        _transfer(from, to, amount);\n    }\n}",
  "sourcePath": "/Users/Arpan.Kumar.Nandi/Documents/workspace/BlockChain POC/contracts/POC20.sol",
  "compiler": {
    "name": "solc",
    "version": "0.8.17+commit.8df45f5f.Emscripten.clang"
  },
  "schemaVersion": "3.4.10",
  "updatedAt": "2022-11-12T01:07:22.291Z",
  "devdoc": {
    "kind": "dev",
    "methods": {
      "allowance(address,address)": {
        "details": "See {IERC20-allowance}."
      },
      "approve(address,uint256)": {
        "details": "See {IERC20-approve}. NOTE: If `amount` is the maximum `uint256`, the allowance is not updated on `transferFrom`. This is semantically equivalent to an infinite approval. Requirements: - `spender` cannot be the zero address."
      },
      "balanceOf(address)": {
        "details": "See {IERC20-balanceOf}."
      },
      "decimals()": {
        "details": "Returns the number of decimals used to get its user representation. For example, if `decimals` equals `2`, a balance of `505` tokens should be displayed to a user as `5.05` (`505 / 10 ** 2`). Tokens usually opt for a value of 18, imitating the relationship between Ether and Wei. This is the value {ERC20} uses, unless this function is overridden; NOTE: This information is only used for _display_ purposes: it in no way affects any of the arithmetic of the contract, including {IERC20-balanceOf} and {IERC20-transfer}."
      },
      "decreaseAllowance(address,uint256)": {
        "details": "Atomically decreases the allowance granted to `spender` by the caller. This is an alternative to {approve} that can be used as a mitigation for problems described in {IERC20-approve}. Emits an {Approval} event indicating the updated allowance. Requirements: - `spender` cannot be the zero address. - `spender` must have allowance for the caller of at least `subtractedValue`."
      },
      "increaseAllowance(address,uint256)": {
        "details": "Atomically increases the allowance granted to `spender` by the caller. This is an alternative to {approve} that can be used as a mitigation for problems described in {IERC20-approve}. Emits an {Approval} event indicating the updated allowance. Requirements: - `spender` cannot be the zero address."
      },
      "name()": {
        "details": "Returns the name of the token."
      },
      "symbol()": {
        "details": "Returns the symbol of the token, usually a shorter version of the name."
      },
      "totalSupply()": {
        "details": "See {IERC20-totalSupply}."
      },
      "transfer(address,uint256)": {
        "details": "See {IERC20-transfer}. Requirements: - `to` cannot be the zero address. - the caller must have a balance of at least `amount`."
      },
      "transferFrom(address,address,uint256)": {
        "details": "See {IERC20-transferFrom}. Emits an {Approval} event indicating the updated allowance. This is not required by the EIP. See the note at the beginning of {ERC20}. NOTE: Does not update the allowance if the current allowance is the maximum `uint256`. Requirements: - `from` and `to` cannot be the zero address. - `from` must have a balance of at least `amount`. - the caller must have allowance for ``from``'s tokens of at least `amount`."
      }
    },
    "version": 1
  },
  "userdoc": {
    "kind": "user",
    "methods": {},
    "version": 1
  }
}