{
  "contractName": "POC721",
  "abi": [
    {
      "inputs": [
        {
          "internalType": "uint256",
          "name": "tokenId",
          "type": "uint256"
        },
        {
          "internalType": "string",
          "name": "title",
          "type": "string"
        },
        {
          "internalType": "string",
          "name": "description",
          "type": "string"
        },
        {
          "internalType": "uint256",
          "name": "price",
          "type": "uint256"
        },
        {
          "internalType": "string",
          "name": "date",
          "type": "string"
        },
        {
          "internalType": "address",
          "name": "POC20Address",
          "type": "address"
        }
      ],
      "stateMutability": "nonpayable",
      "type": "constructor"
    },
    {
      "anonymous": false,
      "inputs": [
        {
          "indexed": true,
          "internalType": "address",
          "name": "owner",
          "type": "address"
        },
        {
          "indexed": true,
          "internalType": "address",
          "name": "approved",
          "type": "address"
        },
        {
          "indexed": true,
          "internalType": "uint256",
          "name": "tokenId",
          "type": "uint256"
        }
      ],
      "name": "Approval",
      "type": "event"
    },
    {
      "anonymous": false,
      "inputs": [
        {
          "indexed": true,
          "internalType": "address",
          "name": "owner",
          "type": "address"
        },
        {
          "indexed": true,
          "internalType": "address",
          "name": "operator",
          "type": "address"
        },
        {
          "indexed": false,
          "internalType": "bool",
          "name": "approved",
          "type": "bool"
        }
      ],
      "name": "ApprovalForAll",
      "type": "event"
    },
    {
      "anonymous": false,
      "inputs": [
        {
          "indexed": true,
          "internalType": "address",
          "name": "from",
          "type": "address"
        },
        {
          "indexed": true,
          "internalType": "address",
          "name": "to",
          "type": "address"
        },
        {
          "indexed": true,
          "internalType": "uint256",
          "name": "tokenId",
          "type": "uint256"
        }
      ],
      "name": "Transfer",
      "type": "event"
    },
    {
      "inputs": [
        {
          "internalType": "address",
          "name": "to",
          "type": "address"
        },
        {
          "internalType": "uint256",
          "name": "tokenId",
          "type": "uint256"
        }
      ],
      "name": "approve",
      "outputs": [],
      "stateMutability": "nonpayable",
      "type": "function"
    },
    {
      "inputs": [
        {
          "internalType": "address",
          "name": "owner",
          "type": "address"
        }
      ],
      "name": "balanceOf",
      "outputs": [
        {
          "internalType": "uint256",
          "name": "",
          "type": "uint256"
        }
      ],
      "stateMutability": "view",
      "type": "function"
    },
    {
      "inputs": [],
      "name": "currencyToken",
      "outputs": [
        {
          "internalType": "contract POC20",
          "name": "",
          "type": "address"
        }
      ],
      "stateMutability": "view",
      "type": "function"
    },
    {
      "inputs": [
        {
          "internalType": "uint256",
          "name": "tokenId",
          "type": "uint256"
        }
      ],
      "name": "getApproved",
      "outputs": [
        {
          "internalType": "address",
          "name": "",
          "type": "address"
        }
      ],
      "stateMutability": "view",
      "type": "function"
    },
    {
      "inputs": [
        {
          "internalType": "address",
          "name": "owner",
          "type": "address"
        },
        {
          "internalType": "address",
          "name": "operator",
          "type": "address"
        }
      ],
      "name": "isApprovedForAll",
      "outputs": [
        {
          "internalType": "bool",
          "name": "",
          "type": "bool"
        }
      ],
      "stateMutability": "view",
      "type": "function"
    },
    {
      "inputs": [
        {
          "internalType": "uint256",
          "name": "",
          "type": "uint256"
        }
      ],
      "name": "item",
      "outputs": [
        {
          "internalType": "uint256",
          "name": "tokenId",
          "type": "uint256"
        },
        {
          "internalType": "string",
          "name": "title",
          "type": "string"
        },
        {
          "internalType": "string",
          "name": "description",
          "type": "string"
        },
        {
          "internalType": "uint256",
          "name": "price",
          "type": "uint256"
        },
        {
          "internalType": "string",
          "name": "date",
          "type": "string"
        },
        {
          "internalType": "address payable",
          "name": "owner",
          "type": "address"
        },
        {
          "internalType": "enum POC721.ItemStatus",
          "name": "status",
          "type": "uint8"
        }
      ],
      "stateMutability": "view",
      "type": "function"
    },
    {
      "inputs": [],
      "name": "name",
      "outputs": [
        {
          "internalType": "string",
          "name": "",
          "type": "string"
        }
      ],
      "stateMutability": "view",
      "type": "function"
    },
    {
      "inputs": [],
      "name": "owner",
      "outputs": [
        {
          "internalType": "address payable",
          "name": "",
          "type": "address"
        }
      ],
      "stateMutability": "view",
      "type": "function"
    },
    {
      "inputs": [
        {
          "internalType": "uint256",
          "name": "tokenId",
          "type": "uint256"
        }
      ],
      "name": "ownerOf",
      "outputs": [
        {
          "internalType": "address",
          "name": "",
          "type": "address"
        }
      ],
      "stateMutability": "view",
      "type": "function"
    },
    {
      "inputs": [
        {
          "internalType": "address",
          "name": "from",
          "type": "address"
        },
        {
          "internalType": "address",
          "name": "to",
          "type": "address"
        },
        {
          "internalType": "uint256",
          "name": "tokenId",
          "type": "uint256"
        }
      ],
      "name": "safeTransferFrom",
      "outputs": [],
      "stateMutability": "nonpayable",
      "type": "function"
    },
    {
      "inputs": [
        {
          "internalType": "address",
          "name": "from",
          "type": "address"
        },
        {
          "internalType": "address",
          "name": "to",
          "type": "address"
        },
        {
          "internalType": "uint256",
          "name": "tokenId",
          "type": "uint256"
        },
        {
          "internalType": "bytes",
          "name": "data",
          "type": "bytes"
        }
      ],
      "name": "safeTransferFrom",
      "outputs": [],
      "stateMutability": "nonpayable",
      "type": "function"
    },
    {
      "inputs": [
        {
          "internalType": "address",
          "name": "operator",
          "type": "address"
        },
        {
          "internalType": "bool",
          "name": "approved",
          "type": "bool"
        }
      ],
      "name": "setApprovalForAll",
      "outputs": [],
      "stateMutability": "nonpayable",
      "type": "function"
    },
    {
      "inputs": [
        {
          "internalType": "bytes4",
          "name": "interfaceId",
          "type": "bytes4"
        }
      ],
      "name": "supportsInterface",
      "outputs": [
        {
          "internalType": "bool",
          "name": "",
          "type": "bool"
        }
      ],
      "stateMutability": "view",
      "type": "function"
    },
    {
      "inputs": [],
      "name": "symbol",
      "outputs": [
        {
          "internalType": "string",
          "name": "",
          "type": "string"
        }
      ],
      "stateMutability": "view",
      "type": "function"
    },
    {
      "inputs": [
        {
          "internalType": "uint256",
          "name": "",
          "type": "uint256"
        },
        {
          "internalType": "uint256",
          "name": "",
          "type": "uint256"
        }
      ],
      "name": "tokenOwnerHistory",
      "outputs": [
        {
          "internalType": "address",
          "name": "",
          "type": "address"
        }
      ],
      "stateMutability": "view",
      "type": "function"
    },
    {
      "inputs": [
        {
          "internalType": "uint256",
          "name": "",
          "type": "uint256"
        },
        {
          "internalType": "uint256",
          "name": "",
          "type": "uint256"
        }
      ],
      "name": "tokenPriceHistory",
      "outputs": [
        {
          "internalType": "uint256",
          "name": "",
          "type": "uint256"
        }
      ],
      "stateMutability": "view",
      "type": "function"
    },
    {
      "inputs": [
        {
          "internalType": "uint256",
          "name": "tokenId",
          "type": "uint256"
        }
      ],
      "name": "tokenURI",
      "outputs": [
        {
          "internalType": "string",
          "name": "",
          "type": "string"
        }
      ],
      "stateMutability": "view",
      "type": "function"
    },
    {
      "inputs": [
        {
          "internalType": "address",
          "name": "from",
          "type": "address"
        },
        {
          "internalType": "address",
          "name": "to",
          "type": "address"
        },
        {
          "internalType": "uint256",
          "name": "tokenId",
          "type": "uint256"
        }
      ],
      "name": "transferFrom",
      "outputs": [],
      "stateMutability": "nonpayable",
      "type": "function"
    },
    {
      "inputs": [
        {
          "internalType": "uint256",
          "name": "tokenId",
          "type": "uint256"
        }
      ],
      "name": "buyItem",
      "outputs": [],
      "stateMutability": "payable",
      "type": "function"
    },
    {
      "inputs": [
        {
          "internalType": "uint256",
          "name": "tokenId",
          "type": "uint256"
        },
        {
          "internalType": "uint256",
          "name": "price",
          "type": "uint256"
        }
      ],
      "name": "resellItem",
      "outputs": [],
      "stateMutability": "nonpayable",
      "type": "function"
    },
    {
      "inputs": [
        {
          "internalType": "uint256",
          "name": "tokenId",
          "type": "uint256"
        }
      ],
      "name": "getTokenOwnerHistory",
      "outputs": [
        {
          "internalType": "address[]",
          "name": "",
          "type": "address[]"
        }
      ],
      "stateMutability": "view",
      "type": "function"
    },
    {
      "inputs": [
        {
          "internalType": "uint256",
          "name": "tokenId",
          "type": "uint256"
        }
      ],
      "name": "getPriceHistory",
      "outputs": [
        {
          "internalType": "uint256[]",
          "name": "",
          "type": "uint256[]"
        }
      ],
      "stateMutability": "view",
      "type": "function"
    }
  ],
  "bytecode": "0x60806040523480156200001157600080fd5b50604051620045ca380380620045ca833981810160405281019062000037919062000ad2565b6040518060400160405280600d81526020017f504f435f4e46545f544f4b454e000000000000000000000000000000000000008152506040518060400160405280600681526020017f504f4337323100000000000000000000000000000000000000000000000000008152508160009081620000b4919062000e0c565b508060019081620000c6919062000e0c565b50505033600660006101000a81548173ffffffffffffffffffffffffffffffffffffffff021916908373ffffffffffffffffffffffffffffffffffffffff1602179055506200013e600660009054906101000a900473ffffffffffffffffffffffffffffffffffffffff1687620003c860201b60201c565b6040518060e00160405280878152602001868152602001858152602001848152602001838152602001600660009054906101000a900473ffffffffffffffffffffffffffffffffffffffff1673ffffffffffffffffffffffffffffffffffffffff16815260200160006001811115620001bc57620001bb62000ef3565b5b815250600a6000888152602001908152602001600020600082015181600001556020820151816001019081620001f3919062000e0c565b5060408201518160020190816200020b919062000e0c565b506060820151816003015560808201518160040190816200022d919062000e0c565b5060a08201518160050160006101000a81548173ffffffffffffffffffffffffffffffffffffffff021916908373ffffffffffffffffffffffffffffffffffffffff16021790555060c08201518160050160146101000a81548160ff02191690836001811115620002a357620002a262000ef3565b5b021790555090505060086000878152602001908152602001600020600660009054906101000a900473ffffffffffffffffffffffffffffffffffffffff169080600181540180825580915050600190039060005260206000200160009091909190916101000a81548173ffffffffffffffffffffffffffffffffffffffff021916908373ffffffffffffffffffffffffffffffffffffffff1602179055506009600087815260200190815260200160002083908060018154018082558091505060019003906000526020600020016000909190919091505580600760006101000a81548173ffffffffffffffffffffffffffffffffffffffff021916908373ffffffffffffffffffffffffffffffffffffffff1602179055505050505050506200127b565b620003ea828260405180602001604052806000815250620003ee60201b60201c565b5050565b6200040083836200045c60201b60201c565b6200041560008484846200065560201b60201c565b62000457576040517f08c379a00000000000000000000000000000000000000000000000000000000081526004016200044e9062000fa9565b60405180910390fd5b505050565b600073ffffffffffffffffffffffffffffffffffffffff168273ffffffffffffffffffffffffffffffffffffffff1603620004ce576040517f08c379a0000000000000000000000000000000000000000000000000000000008152600401620004c5906200101b565b60405180910390fd5b620004df81620007fe60201b60201c565b1562000522576040517f08c379a000000000000000000000000000000000000000000000000000000000815260040162000519906200108d565b60405180910390fd5b62000536600083836200086a60201b60201c565b6001600360008473ffffffffffffffffffffffffffffffffffffffff1673ffffffffffffffffffffffffffffffffffffffff1681526020019081526020016000206000828254620005889190620010de565b92505081905550816002600083815260200190815260200160002060006101000a81548173ffffffffffffffffffffffffffffffffffffffff021916908373ffffffffffffffffffffffffffffffffffffffff160217905550808273ffffffffffffffffffffffffffffffffffffffff16600073ffffffffffffffffffffffffffffffffffffffff167fddf252ad1be2c89b69c2b068fc378daa952ba7f163c4a11628f55a4df523b3ef60405160405180910390a462000651600083836200086f60201b60201c565b5050565b6000620006838473ffffffffffffffffffffffffffffffffffffffff166200087460201b6200155d1760201c565b15620007f1578373ffffffffffffffffffffffffffffffffffffffff1663150b7a02620006b56200089760201b60201c565b8786866040518563ffffffff1660e01b8152600401620006d9949392919062001198565b6020604051808303816000875af19250505080156200071857506040513d601f19601f8201168201806040525081019062000715919062001249565b60015b620007a0573d80600081146200074b576040519150601f19603f3d011682016040523d82523d6000602084013e62000750565b606091505b50600081510362000798576040517f08c379a00000000000000000000000000000000000000000000000000000000081526004016200078f9062000fa9565b60405180910390fd5b805181602001fd5b63150b7a0260e01b7bffffffffffffffffffffffffffffffffffffffffffffffffffffffff1916817bffffffffffffffffffffffffffffffffffffffffffffffffffffffff191614915050620007f6565b600190505b949350505050565b60008073ffffffffffffffffffffffffffffffffffffffff166002600084815260200190815260200160002060009054906101000a900473ffffffffffffffffffffffffffffffffffffffff1673ffffffffffffffffffffffffffffffffffffffff1614159050919050565b505050565b505050565b6000808273ffffffffffffffffffffffffffffffffffffffff163b119050919050565b600033905090565b6000604051905090565b600080fd5b600080fd5b6000819050919050565b620008c881620008b3565b8114620008d457600080fd5b50565b600081519050620008e881620008bd565b92915050565b600080fd5b600080fd5b6000601f19601f8301169050919050565b7f4e487b7100000000000000000000000000000000000000000000000000000000600052604160045260246000fd5b6200094382620008f8565b810181811067ffffffffffffffff8211171562000965576200096462000909565b5b80604052505050565b60006200097a6200089f565b905062000988828262000938565b919050565b600067ffffffffffffffff821115620009ab57620009aa62000909565b5b620009b682620008f8565b9050602081019050919050565b60005b83811015620009e3578082015181840152602081019050620009c6565b60008484015250505050565b600062000a0662000a00846200098d565b6200096e565b90508281526020810184848401111562000a255762000a24620008f3565b5b62000a32848285620009c3565b509392505050565b600082601f83011262000a525762000a51620008ee565b5b815162000a64848260208601620009ef565b91505092915050565b600073ffffffffffffffffffffffffffffffffffffffff82169050919050565b600062000a9a8262000a6d565b9050919050565b62000aac8162000a8d565b811462000ab857600080fd5b50565b60008151905062000acc8162000aa1565b92915050565b60008060008060008060c0878903121562000af25762000af1620008a9565b5b600062000b0289828a01620008d7565b965050602087015167ffffffffffffffff81111562000b265762000b25620008ae565b5b62000b3489828a0162000a3a565b955050604087015167ffffffffffffffff81111562000b585762000b57620008ae565b5b62000b6689828a0162000a3a565b945050606062000b7989828a01620008d7565b935050608087015167ffffffffffffffff81111562000b9d5762000b9c620008ae565b5b62000bab89828a0162000a3a565b92505060a062000bbe89828a0162000abb565b9150509295509295509295565b600081519050919050565b7f4e487b7100000000000000000000000000000000000000000000000000000000600052602260045260246000fd5b6000600282049050600182168062000c1e57607f821691505b60208210810362000c345762000c3362000bd6565b5b50919050565b60008190508160005260206000209050919050565b60006020601f8301049050919050565b600082821b905092915050565b60006008830262000c9e7fffffffffffffffffffffffffffffffffffffffffffffffffffffffffffffffff8262000c5f565b62000caa868362000c5f565b95508019841693508086168417925050509392505050565b6000819050919050565b600062000ced62000ce762000ce184620008b3565b62000cc2565b620008b3565b9050919050565b6000819050919050565b62000d098362000ccc565b62000d2162000d188262000cf4565b84845462000c6c565b825550505050565b600090565b62000d3862000d29565b62000d4581848462000cfe565b505050565b5b8181101562000d6d5762000d6160008262000d2e565b60018101905062000d4b565b5050565b601f82111562000dbc5762000d868162000c3a565b62000d918462000c4f565b8101602085101562000da1578190505b62000db962000db08562000c4f565b83018262000d4a565b50505b505050565b600082821c905092915050565b600062000de16000198460080262000dc1565b1980831691505092915050565b600062000dfc838362000dce565b9150826002028217905092915050565b62000e178262000bcb565b67ffffffffffffffff81111562000e335762000e3262000909565b5b62000e3f825462000c05565b62000e4c82828562000d71565b600060209050601f83116001811462000e84576000841562000e6f578287015190505b62000e7b858262000dee565b86555062000eeb565b601f19841662000e948662000c3a565b60005b8281101562000ebe5784890151825560018201915060208501945060208101905062000e97565b8683101562000ede578489015162000eda601f89168262000dce565b8355505b6001600288020188555050505b505050505050565b7f4e487b7100000000000000000000000000000000000000000000000000000000600052602160045260246000fd5b600082825260208201905092915050565b7f4552433732313a207472616e7366657220746f206e6f6e20455243373231526560008201527f63656976657220696d706c656d656e7465720000000000000000000000000000602082015250565b600062000f9160328362000f22565b915062000f9e8262000f33565b604082019050919050565b6000602082019050818103600083015262000fc48162000f82565b9050919050565b7f4552433732313a206d696e7420746f20746865207a65726f2061646472657373600082015250565b60006200100360208362000f22565b9150620010108262000fcb565b602082019050919050565b60006020820190508181036000830152620010368162000ff4565b9050919050565b7f4552433732313a20746f6b656e20616c7265616479206d696e74656400000000600082015250565b600062001075601c8362000f22565b915062001082826200103d565b602082019050919050565b60006020820190508181036000830152620010a88162001066565b9050919050565b7f4e487b7100000000000000000000000000000000000000000000000000000000600052601160045260246000fd5b6000620010eb82620008b3565b9150620010f883620008b3565b9250828201905080821115620011135762001112620010af565b5b92915050565b620011248162000a8d565b82525050565b6200113581620008b3565b82525050565b600081519050919050565b600082825260208201905092915050565b600062001164826200113b565b62001170818562001146565b935062001182818560208601620009c3565b6200118d81620008f8565b840191505092915050565b6000608082019050620011af600083018762001119565b620011be602083018662001119565b620011cd60408301856200112a565b8181036060830152620011e1818462001157565b905095945050505050565b60007fffffffff0000000000000000000000000000000000000000000000000000000082169050919050565b6200122381620011ec565b81146200122f57600080fd5b50565b600081519050620012438162001218565b92915050565b600060208284031215620012625762001261620008a9565b5b6000620012728482850162001232565b91505092915050565b61333f806200128b6000396000f3fe6080604052600436106101355760003560e01c8063898e6219116100ab578063c87b56dd1161006f578063c87b56dd14610464578063cbd894c7146104a1578063e7fb74c7146104de578063e985e9c5146104fa578063f9eccb3b14610537578063fd1a98a51461056057610135565b8063898e6219146103795780638da5cb5b146103bc57806395d89b41146103e7578063a22cb46514610412578063b88d4fde1461043b57610135565b80631626a418116100fd5780631626a4181461024557806323b872dd1461028257806342842e0e146102ab5780636352211e146102d45780636b2fa3741461031157806370a082311461033c57610135565b8063013dd3411461013a57806301ffc9a71461017757806306fdde03146101b4578063081812fc146101df578063095ea7b31461021c575b600080fd5b34801561014657600080fd5b50610161600480360381019061015c9190611f9d565b61059d565b60405161016e91906120ba565b60405180910390f35b34801561018357600080fd5b5061019e60048036038101906101999190612134565b61063e565b6040516101ab919061217c565b60405180910390f35b3480156101c057600080fd5b506101c9610720565b6040516101d69190612227565b60405180910390f35b3480156101eb57600080fd5b5061020660048036038101906102019190611f9d565b6107b2565b6040516102139190612258565b60405180910390f35b34801561022857600080fd5b50610243600480360381019061023e919061229f565b6107f8565b005b34801561025157600080fd5b5061026c600480360381019061026791906122df565b61090f565b604051610279919061232e565b60405180910390f35b34801561028e57600080fd5b506102a960048036038101906102a49190612349565b610940565b005b3480156102b757600080fd5b506102d260048036038101906102cd9190612349565b6109a0565b005b3480156102e057600080fd5b506102fb60048036038101906102f69190611f9d565b6109c0565b6040516103089190612258565b60405180910390f35b34801561031d57600080fd5b50610326610a71565b60405161033391906123fb565b60405180910390f35b34801561034857600080fd5b50610363600480360381019061035e9190612416565b610a97565b604051610370919061232e565b60405180910390f35b34801561038557600080fd5b506103a0600480360381019061039b9190611f9d565b610b4e565b6040516103b397969594939291906124db565b60405180910390f35b3480156103c857600080fd5b506103d1610d55565b6040516103de919061255f565b60405180910390f35b3480156103f357600080fd5b506103fc610d7b565b6040516104099190612227565b60405180910390f35b34801561041e57600080fd5b50610439600480360381019061043491906125a6565b610e0d565b005b34801561044757600080fd5b50610462600480360381019061045d919061271b565b610e23565b005b34801561047057600080fd5b5061048b60048036038101906104869190611f9d565b610e85565b6040516104989190612227565b60405180910390f35b3480156104ad57600080fd5b506104c860048036038101906104c391906122df565b610eed565b6040516104d59190612258565b60405180910390f35b6104f860048036038101906104f39190611f9d565b610f3b565b005b34801561050657600080fd5b50610521600480360381019061051c919061279e565b6112e7565b60405161052e919061217c565b60405180910390f35b34801561054357600080fd5b5061055e600480360381019061055991906122df565b61137b565b005b34801561056c57600080fd5b5061058760048036038101906105829190611f9d565b6114f2565b604051610594919061289c565b60405180910390f35b60606008600083815260200190815260200160002080548060200260200160405190810160405280929190818152602001828054801561063257602002820191906000526020600020905b8160009054906101000a900473ffffffffffffffffffffffffffffffffffffffff1673ffffffffffffffffffffffffffffffffffffffff16815260200190600101908083116105e8575b50505050509050919050565b60007f80ac58cd000000000000000000000000000000000000000000000000000000007bffffffffffffffffffffffffffffffffffffffffffffffffffffffff1916827bffffffffffffffffffffffffffffffffffffffffffffffffffffffff1916148061070957507f5b5e139f000000000000000000000000000000000000000000000000000000007bffffffffffffffffffffffffffffffffffffffffffffffffffffffff1916827bffffffffffffffffffffffffffffffffffffffffffffffffffffffff1916145b80610719575061071882611580565b5b9050919050565b60606000805461072f906128ed565b80601f016020809104026020016040519081016040528092919081815260200182805461075b906128ed565b80156107a85780601f1061077d576101008083540402835291602001916107a8565b820191906000526020600020905b81548152906001019060200180831161078b57829003601f168201915b5050505050905090565b60006107bd826115ea565b6004600083815260200190815260200160002060009054906101000a900473ffffffffffffffffffffffffffffffffffffffff169050919050565b6000610803826109c0565b90508073ffffffffffffffffffffffffffffffffffffffff168373ffffffffffffffffffffffffffffffffffffffff1603610873576040517f08c379a000000000000000000000000000000000000000000000000000000000815260040161086a90612990565b60405180910390fd5b8073ffffffffffffffffffffffffffffffffffffffff16610892611635565b73ffffffffffffffffffffffffffffffffffffffff1614806108c157506108c0816108bb611635565b6112e7565b5b610900576040517f08c379a00000000000000000000000000000000000000000000000000000000081526004016108f790612a22565b60405180910390fd5b61090a838361163d565b505050565b6009602052816000526040600020818154811061092b57600080fd5b90600052602060002001600091509150505481565b61095161094b611635565b826116f6565b610990576040517f08c379a000000000000000000000000000000000000000000000000000000000815260040161098790612ab4565b60405180910390fd5b61099b83838361178b565b505050565b6109bb83838360405180602001604052806000815250610e23565b505050565b6000806002600084815260200190815260200160002060009054906101000a900473ffffffffffffffffffffffffffffffffffffffff169050600073ffffffffffffffffffffffffffffffffffffffff168173ffffffffffffffffffffffffffffffffffffffff1603610a68576040517f08c379a0000000000000000000000000000000000000000000000000000000008152600401610a5f90612b20565b60405180910390fd5b80915050919050565b600760009054906101000a900473ffffffffffffffffffffffffffffffffffffffff1681565b60008073ffffffffffffffffffffffffffffffffffffffff168273ffffffffffffffffffffffffffffffffffffffff1603610b07576040517f08c379a0000000000000000000000000000000000000000000000000000000008152600401610afe90612bb2565b60405180910390fd5b600360008373ffffffffffffffffffffffffffffffffffffffff1673ffffffffffffffffffffffffffffffffffffffff168152602001908152602001600020549050919050565b600a602052806000526040600020600091509050806000015490806001018054610b77906128ed565b80601f0160208091040260200160405190810160405280929190818152602001828054610ba3906128ed565b8015610bf05780601f10610bc557610100808354040283529160200191610bf0565b820191906000526020600020905b815481529060010190602001808311610bd357829003601f168201915b505050505090806002018054610c05906128ed565b80601f0160208091040260200160405190810160405280929190818152602001828054610c31906128ed565b8015610c7e5780601f10610c5357610100808354040283529160200191610c7e565b820191906000526020600020905b815481529060010190602001808311610c6157829003601f168201915b505050505090806003015490806004018054610c99906128ed565b80601f0160208091040260200160405190810160405280929190818152602001828054610cc5906128ed565b8015610d125780601f10610ce757610100808354040283529160200191610d12565b820191906000526020600020905b815481529060010190602001808311610cf557829003601f168201915b5050505050908060050160009054906101000a900473ffffffffffffffffffffffffffffffffffffffff16908060050160149054906101000a900460ff16905087565b600660009054906101000a900473ffffffffffffffffffffffffffffffffffffffff1681565b606060018054610d8a906128ed565b80601f0160208091040260200160405190810160405280929190818152602001828054610db6906128ed565b8015610e035780601f10610dd857610100808354040283529160200191610e03565b820191906000526020600020905b815481529060010190602001808311610de657829003601f168201915b5050505050905090565b610e1f610e18611635565b83836119f1565b5050565b610e34610e2e611635565b836116f6565b610e73576040517f08c379a0000000000000000000000000000000000000000000000000000000008152600401610e6a90612ab4565b60405180910390fd5b610e7f84848484611b5d565b50505050565b6060610e90826115ea565b6000610e9a611bb9565b90506000815111610eba5760405180602001604052806000815250610ee5565b80610ec484611bf6565b604051602001610ed5929190612c0e565b6040516020818303038152906040525b915050919050565b60086020528160005260406000208181548110610f0957600080fd5b906000526020600020016000915091509054906101000a900473ffffffffffffffffffffffffffffffffffffffff1681565b600660009054906101000a900473ffffffffffffffffffffffffffffffffffffffff1673ffffffffffffffffffffffffffffffffffffffff163373ffffffffffffffffffffffffffffffffffffffff1603610fcb576040517f08c379a0000000000000000000000000000000000000000000000000000000008152600401610fc290612c7e565b60405180910390fd5b60006001811115610fdf57610fde612464565b5b600a600083815260200190815260200160002060050160149054906101000a900460ff16600181111561101557611014612464565b5b14611055576040517f08c379a000000000000000000000000000000000000000000000000000000000815260040161104c90612d10565b60405180910390fd5b600760009054906101000a900473ffffffffffffffffffffffffffffffffffffffff1673ffffffffffffffffffffffffffffffffffffffff1663a64b6e5f33600660009054906101000a900473ffffffffffffffffffffffffffffffffffffffff16600a6000868152602001908152602001600020600301546040518463ffffffff1660e01b81526004016110ec93929190612d30565b600060405180830381600087803b15801561110657600080fd5b505af115801561111a573d6000803e3d6000fd5b5050505061114b600660009054906101000a900473ffffffffffffffffffffffffffffffffffffffff16338361178b565b33600a600083815260200190815260200160002060050160006101000a81548173ffffffffffffffffffffffffffffffffffffffff021916908373ffffffffffffffffffffffffffffffffffffffff1602179055506001600a600083815260200190815260200160002060050160146101000a81548160ff021916908360018111156111da576111d9612464565b5b021790555060086000828152602001908152602001600020339080600181540180825580915050600190039060005260206000200160009091909190916101000a81548173ffffffffffffffffffffffffffffffffffffffff021916908373ffffffffffffffffffffffffffffffffffffffff16021790555060096000828152602001908152602001600020600a600083815260200190815260200160002060030154908060018154018082558091505060019003906000526020600020016000909190919091505533600660006101000a81548173ffffffffffffffffffffffffffffffffffffffff021916908373ffffffffffffffffffffffffffffffffffffffff16021790555050565b6000600560008473ffffffffffffffffffffffffffffffffffffffff1673ffffffffffffffffffffffffffffffffffffffff16815260200190815260200160002060008373ffffffffffffffffffffffffffffffffffffffff1673ffffffffffffffffffffffffffffffffffffffff16815260200190815260200160002060009054906101000a900460ff16905092915050565b600660009054906101000a900473ffffffffffffffffffffffffffffffffffffffff1673ffffffffffffffffffffffffffffffffffffffff163373ffffffffffffffffffffffffffffffffffffffff161461140b576040517f08c379a000000000000000000000000000000000000000000000000000000000815260040161140290612db3565b60405180910390fd5b60018081111561141e5761141d612464565b5b600a600084815260200190815260200160002060050160149054906101000a900460ff16600181111561145457611453612464565b5b14611494576040517f08c379a000000000000000000000000000000000000000000000000000000000815260040161148b90612e45565b60405180910390fd5b6000600a600084815260200190815260200160002060050160146101000a81548160ff021916908360018111156114ce576114cd612464565b5b021790555080600a6000848152602001908152602001600020600301819055505050565b60606009600083815260200190815260200160002080548060200260200160405190810160405280929190818152602001828054801561155157602002820191906000526020600020905b81548152602001906001019080831161153d575b50505050509050919050565b6000808273ffffffffffffffffffffffffffffffffffffffff163b119050919050565b60007f01ffc9a7000000000000000000000000000000000000000000000000000000007bffffffffffffffffffffffffffffffffffffffffffffffffffffffff1916827bffffffffffffffffffffffffffffffffffffffffffffffffffffffff1916149050919050565b6115f381611d56565b611632576040517f08c379a000000000000000000000000000000000000000000000000000000000815260040161162990612b20565b60405180910390fd5b50565b600033905090565b816004600083815260200190815260200160002060006101000a81548173ffffffffffffffffffffffffffffffffffffffff021916908373ffffffffffffffffffffffffffffffffffffffff160217905550808273ffffffffffffffffffffffffffffffffffffffff166116b0836109c0565b73ffffffffffffffffffffffffffffffffffffffff167f8c5be1e5ebec7d5bd14f71427d1e84f3dd0314c0f7b2291e5b200ac8c7c3b92560405160405180910390a45050565b600080611702836109c0565b90508073ffffffffffffffffffffffffffffffffffffffff168473ffffffffffffffffffffffffffffffffffffffff161480611744575061174381856112e7565b5b8061178257508373ffffffffffffffffffffffffffffffffffffffff1661176a846107b2565b73ffffffffffffffffffffffffffffffffffffffff16145b91505092915050565b8273ffffffffffffffffffffffffffffffffffffffff166117ab826109c0565b73ffffffffffffffffffffffffffffffffffffffff1614611801576040517f08c379a00000000000000000000000000000000000000000000000000000000081526004016117f890612ed7565b60405180910390fd5b600073ffffffffffffffffffffffffffffffffffffffff168273ffffffffffffffffffffffffffffffffffffffff1603611870576040517f08c379a000000000000000000000000000000000000000000000000000000000815260040161186790612f69565b60405180910390fd5b61187b838383611dc2565b61188660008261163d565b6001600360008573ffffffffffffffffffffffffffffffffffffffff1673ffffffffffffffffffffffffffffffffffffffff16815260200190815260200160002060008282546118d69190612fb8565b925050819055506001600360008473ffffffffffffffffffffffffffffffffffffffff1673ffffffffffffffffffffffffffffffffffffffff168152602001908152602001600020600082825461192d9190612fec565b92505081905550816002600083815260200190815260200160002060006101000a81548173ffffffffffffffffffffffffffffffffffffffff021916908373ffffffffffffffffffffffffffffffffffffffff160217905550808273ffffffffffffffffffffffffffffffffffffffff168473ffffffffffffffffffffffffffffffffffffffff167fddf252ad1be2c89b69c2b068fc378daa952ba7f163c4a11628f55a4df523b3ef60405160405180910390a46119ec838383611dc7565b505050565b8173ffffffffffffffffffffffffffffffffffffffff168373ffffffffffffffffffffffffffffffffffffffff1603611a5f576040517f08c379a0000000000000000000000000000000000000000000000000000000008152600401611a569061306c565b60405180910390fd5b80600560008573ffffffffffffffffffffffffffffffffffffffff1673ffffffffffffffffffffffffffffffffffffffff16815260200190815260200160002060008473ffffffffffffffffffffffffffffffffffffffff1673ffffffffffffffffffffffffffffffffffffffff16815260200190815260200160002060006101000a81548160ff0219169083151502179055508173ffffffffffffffffffffffffffffffffffffffff168373ffffffffffffffffffffffffffffffffffffffff167f17307eab39ab6107e8899845ad3d59bd9653f200f220920489ca2b5937696c3183604051611b50919061217c565b60405180910390a3505050565b611b6884848461178b565b611b7484848484611dcc565b611bb3576040517f08c379a0000000000000000000000000000000000000000000000000000000008152600401611baa906130fe565b60405180910390fd5b50505050565b60606040518060400160405280601681526020017f687474703a2f2f6c6f63616c686f73743a353535352f00000000000000000000815250905090565b606060008203611c3d576040518060400160405280600181526020017f30000000000000000000000000000000000000000000000000000000000000008152509050611d51565b600082905060005b60008214611c6f578080611c589061311e565b915050600a82611c689190613195565b9150611c45565b60008167ffffffffffffffff811115611c8b57611c8a6125f0565b5b6040519080825280601f01601f191660200182016040528015611cbd5781602001600182028036833780820191505090505b5090505b60008514611d4a57600182611cd69190612fb8565b9150600a85611ce591906131c6565b6030611cf19190612fec565b60f81b818381518110611d0757611d066131f7565b5b60200101907effffffffffffffffffffffffffffffffffffffffffffffffffffffffffffff1916908160001a905350600a85611d439190613195565b9450611cc1565b8093505050505b919050565b60008073ffffffffffffffffffffffffffffffffffffffff166002600084815260200190815260200160002060009054906101000a900473ffffffffffffffffffffffffffffffffffffffff1673ffffffffffffffffffffffffffffffffffffffff1614159050919050565b505050565b505050565b6000611ded8473ffffffffffffffffffffffffffffffffffffffff1661155d565b15611f46578373ffffffffffffffffffffffffffffffffffffffff1663150b7a02611e16611635565b8786866040518563ffffffff1660e01b8152600401611e38949392919061327b565b6020604051808303816000875af1925050508015611e7457506040513d601f19601f82011682018060405250810190611e7191906132dc565b60015b611ef6573d8060008114611ea4576040519150601f19603f3d011682016040523d82523d6000602084013e611ea9565b606091505b506000815103611eee576040517f08c379a0000000000000000000000000000000000000000000000000000000008152600401611ee5906130fe565b60405180910390fd5b805181602001fd5b63150b7a0260e01b7bffffffffffffffffffffffffffffffffffffffffffffffffffffffff1916817bffffffffffffffffffffffffffffffffffffffffffffffffffffffff191614915050611f4b565b600190505b949350505050565b6000604051905090565b600080fd5b600080fd5b6000819050919050565b611f7a81611f67565b8114611f8557600080fd5b50565b600081359050611f9781611f71565b92915050565b600060208284031215611fb357611fb2611f5d565b5b6000611fc184828501611f88565b91505092915050565b600081519050919050565b600082825260208201905092915050565b6000819050602082019050919050565b600073ffffffffffffffffffffffffffffffffffffffff82169050919050565b600061202182611ff6565b9050919050565b61203181612016565b82525050565b60006120438383612028565b60208301905092915050565b6000602082019050919050565b600061206782611fca565b6120718185611fd5565b935061207c83611fe6565b8060005b838110156120ad5781516120948882612037565b975061209f8361204f565b925050600181019050612080565b5085935050505092915050565b600060208201905081810360008301526120d4818461205c565b905092915050565b60007fffffffff0000000000000000000000000000000000000000000000000000000082169050919050565b612111816120dc565b811461211c57600080fd5b50565b60008135905061212e81612108565b92915050565b60006020828403121561214a57612149611f5d565b5b60006121588482850161211f565b91505092915050565b60008115159050919050565b61217681612161565b82525050565b6000602082019050612191600083018461216d565b92915050565b600081519050919050565b600082825260208201905092915050565b60005b838110156121d15780820151818401526020810190506121b6565b60008484015250505050565b6000601f19601f8301169050919050565b60006121f982612197565b61220381856121a2565b93506122138185602086016121b3565b61221c816121dd565b840191505092915050565b6000602082019050818103600083015261224181846121ee565b905092915050565b61225281612016565b82525050565b600060208201905061226d6000830184612249565b92915050565b61227c81612016565b811461228757600080fd5b50565b60008135905061229981612273565b92915050565b600080604083850312156122b6576122b5611f5d565b5b60006122c48582860161228a565b92505060206122d585828601611f88565b9150509250929050565b600080604083850312156122f6576122f5611f5d565b5b600061230485828601611f88565b925050602061231585828601611f88565b9150509250929050565b61232881611f67565b82525050565b6000602082019050612343600083018461231f565b92915050565b60008060006060848603121561236257612361611f5d565b5b60006123708682870161228a565b93505060206123818682870161228a565b925050604061239286828701611f88565b9150509250925092565b6000819050919050565b60006123c16123bc6123b784611ff6565b61239c565b611ff6565b9050919050565b60006123d3826123a6565b9050919050565b60006123e5826123c8565b9050919050565b6123f5816123da565b82525050565b600060208201905061241060008301846123ec565b92915050565b60006020828403121561242c5761242b611f5d565b5b600061243a8482850161228a565b91505092915050565b600061244e82611ff6565b9050919050565b61245e81612443565b82525050565b7f4e487b7100000000000000000000000000000000000000000000000000000000600052602160045260246000fd5b600281106124a4576124a3612464565b5b50565b60008190506124b582612493565b919050565b60006124c5826124a7565b9050919050565b6124d5816124ba565b82525050565b600060e0820190506124f0600083018a61231f565b818103602083015261250281896121ee565b9050818103604083015261251681886121ee565b9050612525606083018761231f565b818103608083015261253781866121ee565b905061254660a0830185612455565b61255360c08301846124cc565b98975050505050505050565b60006020820190506125746000830184612455565b92915050565b61258381612161565b811461258e57600080fd5b50565b6000813590506125a08161257a565b92915050565b600080604083850312156125bd576125bc611f5d565b5b60006125cb8582860161228a565b92505060206125dc85828601612591565b9150509250929050565b600080fd5b600080fd5b7f4e487b7100000000000000000000000000000000000000000000000000000000600052604160045260246000fd5b612628826121dd565b810181811067ffffffffffffffff82111715612647576126466125f0565b5b80604052505050565b600061265a611f53565b9050612666828261261f565b919050565b600067ffffffffffffffff821115612686576126856125f0565b5b61268f826121dd565b9050602081019050919050565b82818337600083830152505050565b60006126be6126b98461266b565b612650565b9050828152602081018484840111156126da576126d96125eb565b5b6126e584828561269c565b509392505050565b600082601f830112612702576127016125e6565b5b81356127128482602086016126ab565b91505092915050565b6000806000806080858703121561273557612734611f5d565b5b60006127438782880161228a565b94505060206127548782880161228a565b935050604061276587828801611f88565b925050606085013567ffffffffffffffff81111561278657612785611f62565b5b612792878288016126ed565b91505092959194509250565b600080604083850312156127b5576127b4611f5d565b5b60006127c38582860161228a565b92505060206127d48582860161228a565b9150509250929050565b600081519050919050565b600082825260208201905092915050565b6000819050602082019050919050565b61281381611f67565b82525050565b6000612825838361280a565b60208301905092915050565b6000602082019050919050565b6000612849826127de565b61285381856127e9565b935061285e836127fa565b8060005b8381101561288f5781516128768882612819565b975061288183612831565b925050600181019050612862565b5085935050505092915050565b600060208201905081810360008301526128b6818461283e565b905092915050565b7f4e487b7100000000000000000000000000000000000000000000000000000000600052602260045260246000fd5b6000600282049050600182168061290557607f821691505b602082108103612918576129176128be565b5b50919050565b7f4552433732313a20617070726f76616c20746f2063757272656e74206f776e6560008201527f7200000000000000000000000000000000000000000000000000000000000000602082015250565b600061297a6021836121a2565b91506129858261291e565b604082019050919050565b600060208201905081810360008301526129a98161296d565b9050919050565b7f4552433732313a20617070726f76652063616c6c6572206973206e6f7420746f60008201527f6b656e206f776e6572206e6f7220617070726f76656420666f7220616c6c0000602082015250565b6000612a0c603e836121a2565b9150612a17826129b0565b604082019050919050565b60006020820190508181036000830152612a3b816129ff565b9050919050565b7f4552433732313a2063616c6c6572206973206e6f7420746f6b656e206f776e6560008201527f72206e6f7220617070726f766564000000000000000000000000000000000000602082015250565b6000612a9e602e836121a2565b9150612aa982612a42565b604082019050919050565b60006020820190508181036000830152612acd81612a91565b9050919050565b7f4552433732313a20696e76616c696420746f6b656e2049440000000000000000600082015250565b6000612b0a6018836121a2565b9150612b1582612ad4565b602082019050919050565b60006020820190508181036000830152612b3981612afd565b9050919050565b7f4552433732313a2061646472657373207a65726f206973206e6f74206120766160008201527f6c6964206f776e65720000000000000000000000000000000000000000000000602082015250565b6000612b9c6029836121a2565b9150612ba782612b40565b604082019050919050565b60006020820190508181036000830152612bcb81612b8f565b9050919050565b600081905092915050565b6000612be882612197565b612bf28185612bd2565b9350612c028185602086016121b3565b80840191505092915050565b6000612c1a8285612bdd565b9150612c268284612bdd565b91508190509392505050565b7f596f752063616e6e6f742062757920796f7572206f776e206974656d00000000600082015250565b6000612c68601c836121a2565b9150612c7382612c32565b602082019050919050565b60006020820190508181036000830152612c9781612c5b565b9050919050565b7f596f752063616e6e6f742062757920616e206974656d2077686963682069732060008201527f6e6f7420617661696c61626c6500000000000000000000000000000000000000602082015250565b6000612cfa602d836121a2565b9150612d0582612c9e565b604082019050919050565b60006020820190508181036000830152612d2981612ced565b9050919050565b6000606082019050612d456000830186612455565b612d526020830185612455565b612d5f604083018461231f565b949350505050565b7f4f6e6c79206f776e657200000000000000000000000000000000000000000000600082015250565b6000612d9d600a836121a2565b9150612da882612d67565b602082019050919050565b60006020820190508181036000830152612dcc81612d90565b9050919050565b7f4f6e6c7920736f6c64206974656d732063616e206265206c697374656420616760008201527f61696e0000000000000000000000000000000000000000000000000000000000602082015250565b6000612e2f6023836121a2565b9150612e3a82612dd3565b604082019050919050565b60006020820190508181036000830152612e5e81612e22565b9050919050565b7f4552433732313a207472616e736665722066726f6d20696e636f72726563742060008201527f6f776e6572000000000000000000000000000000000000000000000000000000602082015250565b6000612ec16025836121a2565b9150612ecc82612e65565b604082019050919050565b60006020820190508181036000830152612ef081612eb4565b9050919050565b7f4552433732313a207472616e7366657220746f20746865207a65726f2061646460008201527f7265737300000000000000000000000000000000000000000000000000000000602082015250565b6000612f536024836121a2565b9150612f5e82612ef7565b604082019050919050565b60006020820190508181036000830152612f8281612f46565b9050919050565b7f4e487b7100000000000000000000000000000000000000000000000000000000600052601160045260246000fd5b6000612fc382611f67565b9150612fce83611f67565b9250828203905081811115612fe657612fe5612f89565b5b92915050565b6000612ff782611f67565b915061300283611f67565b925082820190508082111561301a57613019612f89565b5b92915050565b7f4552433732313a20617070726f766520746f2063616c6c657200000000000000600082015250565b60006130566019836121a2565b915061306182613020565b602082019050919050565b6000602082019050818103600083015261308581613049565b9050919050565b7f4552433732313a207472616e7366657220746f206e6f6e20455243373231526560008201527f63656976657220696d706c656d656e7465720000000000000000000000000000602082015250565b60006130e86032836121a2565b91506130f38261308c565b604082019050919050565b60006020820190508181036000830152613117816130db565b9050919050565b600061312982611f67565b91507fffffffffffffffffffffffffffffffffffffffffffffffffffffffffffffffff820361315b5761315a612f89565b5b600182019050919050565b7f4e487b7100000000000000000000000000000000000000000000000000000000600052601260045260246000fd5b60006131a082611f67565b91506131ab83611f67565b9250826131bb576131ba613166565b5b828204905092915050565b60006131d182611f67565b91506131dc83611f67565b9250826131ec576131eb613166565b5b828206905092915050565b7f4e487b7100000000000000000000000000000000000000000000000000000000600052603260045260246000fd5b600081519050919050565b600082825260208201905092915050565b600061324d82613226565b6132578185613231565b93506132678185602086016121b3565b613270816121dd565b840191505092915050565b60006080820190506132906000830187612249565b61329d6020830186612249565b6132aa604083018561231f565b81810360608301526132bc8184613242565b905095945050505050565b6000815190506132d681612108565b92915050565b6000602082840312156132f2576132f1611f5d565b5b6000613300848285016132c7565b9150509291505056fea2646970667358221220f04659b4b1f792bd31834c7d4b22f521a13bb448ca694371fc1ac2a4d1f4992564736f6c63430008110033",
  "immutableReferences": {},
  "source": "// SPDX-License-Identifier: GPL-3.0\n\npragma solidity >=0.7.0 <0.9.0;\n\nimport \"@openzeppelin/contracts/token/ERC721/ERC721.sol\";\nimport \"./POC20.sol\";\n\ncontract POC721 is ERC721 {\n\n    address payable public owner;\n    enum ItemStatus { Available, Sold }\n\n    POC20 public currencyToken;\n\n    struct Item {\n        uint tokenId;\n        string title;\n        string description;\n        uint256 price;\n        string date;\n        address payable owner;\n        ItemStatus status;\n        //string image;\n    }\n\n    mapping(uint => address[]) public tokenOwnerHistory;\n    mapping(uint => uint[]) public tokenPriceHistory;\n    mapping(uint256 => Item) public item;\n\n    constructor(uint tokenId, string memory title, string memory description, uint price, string memory date, address POC20Address) ERC721('POC_NFT_TOKEN', 'POC721') {\n        owner = payable(msg.sender);\n        _safeMint(owner, tokenId);\n        item[tokenId] = Item(tokenId, title, description, price, date, owner, ItemStatus.Available);\n        tokenOwnerHistory[tokenId].push(owner);\n        tokenPriceHistory[tokenId].push(price);\n        currencyToken = POC20(POC20Address);\n    }\n\n    function buyItem (uint tokenId) public payable{\n        require(msg.sender != owner, \"You cannot buy your own item\");\n        require(item[tokenId].status == ItemStatus.Available, \"You cannot buy an item which is not available\");\n        //payable(owner).transfer(msg.value);\n        currencyToken.transferTokens(payable(msg.sender),payable(owner),item[tokenId].price);\n        _transfer(owner, msg.sender, tokenId);\n        item[tokenId].owner = payable(msg.sender);\n        item[tokenId].status = ItemStatus.Sold;\n        tokenOwnerHistory[tokenId].push(msg.sender);\n        tokenPriceHistory[tokenId].push(item[tokenId].price);\n        owner = payable(msg.sender);\n    }\n\n    function resellItem(uint tokenId, uint price) public {\n        require(msg.sender == owner, \"Only owner\");\n        require(item[tokenId].status == ItemStatus.Sold, \"Only sold items can be listed again\");\n        item[tokenId].status = ItemStatus.Available;\n        item[tokenId].price = price;\n    }\n     function _baseURI() internal pure override returns(string memory){\n        return 'http://localhost:5555/';\n    }\n\n    function getTokenOwnerHistory(uint tokenId) external view returns(address[] memory) {\n        return tokenOwnerHistory[tokenId];\n    }\n    function getPriceHistory(uint tokenId) external view returns(uint[] memory) {\n        return tokenPriceHistory[tokenId];\n    }\n}",
  "sourcePath": "/Users/Arpan.Kumar.Nandi/Documents/workspace/BlockChain POC/contracts/POC721.sol",
  "compiler": {
    "name": "solc",
    "version": "0.8.17+commit.8df45f5f.Emscripten.clang"
  },
  "schemaVersion": "3.4.10",
  "updatedAt": "2022-11-12T01:07:22.295Z",
  "devdoc": {
    "kind": "dev",
    "methods": {
      "approve(address,uint256)": {
        "details": "See {IERC721-approve}."
      },
      "balanceOf(address)": {
        "details": "See {IERC721-balanceOf}."
      },
      "getApproved(uint256)": {
        "details": "See {IERC721-getApproved}."
      },
      "isApprovedForAll(address,address)": {
        "details": "See {IERC721-isApprovedForAll}."
      },
      "name()": {
        "details": "See {IERC721Metadata-name}."
      },
      "ownerOf(uint256)": {
        "details": "See {IERC721-ownerOf}."
      },
      "safeTransferFrom(address,address,uint256)": {
        "details": "See {IERC721-safeTransferFrom}."
      },
      "safeTransferFrom(address,address,uint256,bytes)": {
        "details": "See {IERC721-safeTransferFrom}."
      },
      "setApprovalForAll(address,bool)": {
        "details": "See {IERC721-setApprovalForAll}."
      },
      "supportsInterface(bytes4)": {
        "details": "See {IERC165-supportsInterface}."
      },
      "symbol()": {
        "details": "See {IERC721Metadata-symbol}."
      },
      "tokenURI(uint256)": {
        "details": "See {IERC721Metadata-tokenURI}."
      },
      "transferFrom(address,address,uint256)": {
        "details": "See {IERC721-transferFrom}."
      }
    },
    "version": 1
  },
  "userdoc": {
    "kind": "user",
    "methods": {},
    "version": 1
  }
}